:100000000C945A000C9477000C9477000C947700B1
:100010000C9477000C94A4090C9477000C9477004E
:100020000C9477000C9477000C9477000C94ED09F5
:100030000C9477000C9477000C9477000C94770064
:100040000C9477000C9477000C9477000C94770054
:100050000C9477000C9477000C9477000C94770044
:100060000C9477000C9477000C9477000C94770034
:100070000C9477000C9477000C9477000C94770024
:100080000C9477000C9477000C9477000C94770014
:100090000C9477000C9477000C9477000C94770004
:1000A0000C9477000C9477000C9477000C947700F4
:1000B0000C94770011241FBECFEFD8E0DEBFCDBF78
:1000C00015E0A0E0B1E0E2E4FFE102C005900D928E
:1000D000AA38B107D9F725E0AAE8B5E001C01D921A
:1000E000A239B207E1F70E9455020C949F0F0C94BD
:1000F00000009B01AC011092B90060E074E284EF53
:1001000090E00E94840CDA01C9014097A109B1096D
:10011000B695A795979587958093B8000895ECEBD1
:10012000F0E0108294EA90839091BC009923E4F768
:100130009091B900987F983011F09031B1F490E02F
:10014000880F991F862B8093BB0084E88093BC00A6
:100150008091BC008823E4F78091B900887F8831C2
:1001600031F0803431F480E008958AE0089580E031
:10017000089584E108958093BB0084E88093BC00D7
:100180008091BC008823E4F78091B900887F883291
:1001900011F085E1089580E0089584E98093BC0022
:1001A0000895CF93C62F60E00E948F00811108C090
:1001B0008C2F0E94BB00811103C00E94CD0080E003
:1001C000CF9108951092D9008CE08093D8000895C3
:1001D00084EA8093DC008091DC008823E4F70895B2
:1001E00084E98093DC0008958093DB0084E88093A9
:1001F000DC008091DC008823E4F70895CF93DF933F
:10020000C82FD92F0E94E80084EC0E94F4008D2FA3
:100210008F700E94F4008C2F0E94F4000E94F00066
:10022000DF91CF910895FC012381622B80810E9490
:10023000D100089528E0FC01238360E00E941301AF
:1002400008950F931F93CF938C01C62F64600E9473
:1002500013018AE08A95F1F700C06C2F6B7FC8010B
:100260000E94130187EC90E00197F1F700C00000B5
:10027000CF911F910F9108951F93CF93DF93EC01BE
:10028000162F0E941301612FCE010E942101DF91E0
:10029000CF911F910895FF920F931F93CF93DF93F8
:1002A0008C01F42E862F807F90E1699FE00111245C
:1002B000682F642BC8010E943C016C2F6F29C80174
:1002C0000E943C01DF91CF911F910F91FF90089503
:1002D0000F931F93CF93DF938C01EB01688106C0CE
:1002E00041E0C8010E944B01219668816111F8CF5D
:1002F000DF91CF911F910F91089540E00E944B0133
:100300000895CF93DF9300D000D0CDB7DEB7198228
:1003100020E42A8324E12B8324E52C83E1E0F0E030
:10032000EC0FFD1FE60FF11D6081640F60680E94F5
:100330007D010F900F900F900F90DF91CF91089556
:10034000CF93DF93EC0161E00E947D018FE39FE199
:100350000197F1F700C0000040E060E0CE010E948C
:100360008101DF91CF91089562E00E947D018FE3CA
:100370009FE10197F1F700C000000895FC0165813D
:10038000262F246025836C600E947D010895CF9301
:10039000DF93CDB7DEB72E970FB6F894DEBF0FBE52
:1003A000CDBF888769874A871B862C8784E08D8725
:1003B00082E08E87423018F0822F88608C8722235B
:1003C00029F0413019F48C8584608C872FEF81EE01
:1003D00094E0215080409040E1F700C0000060E0D0
:1003E000CE0108960E9413012FEF83ED90E3215078
:1003F00080409040E1F700C0000060E3CE01089625
:100400000E9413018FE496E40197F1F700C0000009
:1004100060E3CE0108960E943C018FE496E40197C8
:10042000F1F700C0000060E3CE0108960E943C0195
:1004300087E592E00197F1F700C0000060E2CE018D
:1004400008960E943C016C856062CE0108960E946D
:100450007D01CE0108960E94BE01CE0108960E9441
:10046000A0016E856460CE0108960E947D01CE01D8
:1004700008960E94B40187E0FE013896DE011196CD
:1004800001900D928A95E1F729813A814B815C8137
:100490006D817E818F8190E02E960FB6F894DEBF3D
:1004A0000FBECDBFDF91CF910895CF93DF93CDB72E
:1004B000DEB7E7970FB6F894DEBF0FBECDBF8AB1A7
:1004C00084708AB98AB180718AB98AB180788AB910
:1004D0008AB18E7F8AB98BB181608BB9609100013E
:1004E00070E080E090E00E948B0B2DEC3CEC43E24E
:1004F00052E40E94170C0E945A0B7093910560936E
:1005000090058BE1E3E0F1E0DE011A9601900D9297
:100510008A95E1F78CE0EEE1F1E0DE01959601903D
:100520000D928A95E1F760EA76E881E090E00E941A
:10053000790020E044E064E187E20E94C70129AB32
:100540003AAB4BAB5CAB6DAB7EAB8FABCE01C19628
:100550000E941A0140E060E0CE01C1960E94810134
:100560006AE271E0CE01C1960E94680140E061E05C
:10057000CE01C1960E94810164E371E0CE01C19673
:100580000E94680140E062E0CE01C1960E948101B4
:100590006EE371E0CE01C1960E946801E8E6F0E0EA
:1005A000808184608083EDE6F0E0808185698083CE
:1005B00078940E94E20041E160E0CE01C1960E9481
:1005C0008101809100011F928F9307E411E01F9336
:1005D0000F93CE0101966C019F938F930E94B50CEF
:1005E000B601CE01C1960E94680167E871E0CE01B4
:1005F000C1960E94680149E060E0CE01C1960E9468
:1006000081016AE471E0CE01C1960E9468014EE06A
:1006100061E0CE01C1960E94810166E871E0CE01E1
:10062000C1960E9468018EA18F938DA18F931F9315
:100630000F938E010B5F1F4F1F930F930E94B50CFA
:10064000B801CE01C1960E94680142E161E0CE018D
:10065000C1960E9481016CE471E0CE01C1960E94B6
:1006600068014CE062E0CE01C1960E94810166E81B
:1006700071E0CE01C1960E9468018091020190E074
:10068000BC01660F771F660F771F660F771F860FF7
:10069000971F6AE070E06C0F7D1F680F791FCE0115
:1006A000C1960E94680140E063E0CE01C1960E94BD
:1006B00081016FE471E0CE01C1960E946801E1E81A
:1006C000F0E0808188608083AFE6B0E08C9182604A
:1006D0008C9378948081846080836DA17EA180E07A
:1006E00090E00E94890B9B01AC0160E070E080E823
:1006F0009FE30E94E80A20E030E040E05FE30E94D0
:10070000170C20E034E244E757E40E94170C20E085
:1007100030E040E85FE30E947B0A0E945A0B70932E
:100720008900609388000FB6F894DEBF0FBECDBF7E
:10073000F12C00E010E080918C05882309F4D8C0EA
:10074000CE01C1960E94A00180918C05813009F0F4
:10075000B9C091E0F912B6C040E060E0CE01C196A8
:100760000E9481016AE271E0CE01C1960E94680197
:1007700040E061E0CE01C1960E94810164E371E036
:10078000CE01C1960E94680140E062E0CE01C196B0
:100790000E9481016EE371E0CE01C1960E94680162
:1007A00082E38093000141E160E0CE01C1960E94A6
:1007B0008101809100011F928F9307E411E01F9344
:1007C0000F93CE0101966C019F938F930E94B50CFD
:1007D000B601CE01C1960E94680167E871E0CE01C2
:1007E000C1960E94680149E060E0CE01C1960E9476
:1007F00081016AE471E0CE01C1960E9468014EE079
:1008000061E0CE01C1960E94810166E871E0CE01EF
:10081000C1960E9468018EA18F938DA18F931F9323
:100820000F938E010B5F1F4F1F930F930E94B50C08
:10083000B801CE01C1960E94680142E161E0CE019B
:10084000C1960E9481016CE471E0CE01C1960E94C4
:10085000680181E0809302014CE062E0CE01C19624
:100860000E94810166E871E0CE01C1960E94680194
:100870008091020190E0BC01660F771F660F771F21
:10088000660F771F680F791F8AE090E08C0F9D1F1D
:10089000680F791F87960E94680140E063E0CE01EF
:1008A000C1960E9481016FE471E0CE01C1960E9461
:1008B00068010FB6F894DEBF0FBECDBFF12C00E08B
:1008C00010E014C080918C05823081F4F1100EC0CC
:1008D00040E061E0CE01C1960E94810164E671E0D2
:1008E000CE01C1960E946801FF24F39410928C05FA
:1008F00080918F05882309F4F7C0123009F45BC09A
:1009000028F4112361F0113081F1ECC0143009F4A6
:100910009EC008F476C0153009F4BFC0E3C040E1C2
:1009200060E0CE01C1960E9481016DE671E0CE01CA
:10093000C1960E94680149E060E0CE01C1960E9424
:10094000810167E871E0CE01C1960E94680140E034
:1009500063E0CE01C1960E9481016FE671E0CE0195
:10096000C1960E94680113E0BDC04CE061E0CE0179
:10097000C1960E9481016DE671E0CE01C1960E9490
:10098000680149E061E0CE01C1960E94810167E8FB
:1009900071E0CE01C1960E94680140E063E0CE01A3
:1009A000C1960E9481016FE671E0CE01C1960E945E
:1009B000680114E097C04BE062E0CE01C1960E944E
:1009C00081016DE671E0CE01C1960E94680148E0A8
:1009D00062E0CE01C1960E94810167E871E0CE011C
:1009E000C1960E94680140E063E0CE01C1960E947A
:1009F00081016FE671E0CE01C1960E94680115E0A9
:100A000071C049E060E0CE01C1960E9481016AE4B4
:100A100071E0CE01C1960E94680140E160E0CE0124
:100A2000C1960E94810167E871E0CE01C1960E94E3
:100A3000680140E063E0CE01C1960E9481016FE44D
:100A400071E0CE01C1960E94680110E04BC049E000
:100A500061E0CE01C1960E9481016AE471E0CE019D
:100A6000C1960E9468014CE061E0CE01C1960E94EF
:100A7000810167E871E0CE01C1960E94680140E003
:100A800063E0CE01C1960E9481016FE471E0CE0166
:100A9000C1960E94680111E025C048E062E0CE01E5
:100AA000C1960E9481016AE471E0CE01C1960E9464
:100AB00068014BE062E0CE01C1960E94810167E8C7
:100AC00071E0CE01C1960E94680140E063E0CE0172
:100AD000C1960E9481016FE471E0CE01C1960E942F
:100AE000680112E010928F0580918E05882309F429
:100AF00012C2123009F443C028F4112361F01130FE
:100B000021F107C2143009F4A2C008F452C0153014
:100B100009F451C1FEC149E060E0CE01C1960E94D6
:100B2000810167E871E0CE01C1960E94680148E04A
:100B300062E0CE01C1960E9481016AE471E0CE01BB
:100B4000C1960E94680112E0E4C149E060E0CE0174
:100B5000C1960E9481016AE471E0CE01C1960E94B3
:100B6000680149E061E0CE01C1960E94810167E819
:100B700071E0CE01C1960E94680110E0CAC149E04F
:100B800061E0CE01C1960E9481016AE471E0CE016C
:100B9000C1960E94680148E062E0CE01C1960E94C1
:100BA000810167E871E0CE01C1960E94680111E001
:100BB000B0C1809100018436B0F58F5F8093000151
:100BC00041E160E0CE01C1960E9481018091000167
:100BD0001F928F9387E491E09F938F93CE010196AC
:100BE0006C019F938F930E94B50CB601CE01C19604
:100BF0000E946801809100010F900F900F900F905C
:100C00000F900F908A3038F466E871E0CE01C196FB
:100C10000E94680108C0843630F467E871E0CE01B4
:100C2000C1960E9468016091000170E080E090E050
:100C30000E948B0B2DEC3CEC43E252E40E94170C1B
:100C40000E945A0B709391056093900562C1053024
:100C500011F00F5F01C000E04EE061E0CE01C196EF
:100C60000E948101023018F0053070F407C066E878
:100C700071E0CE01C1960E94680106C067E871E08C
:100C8000CE01C1960E946801C02ED12CF601EE0F54
:100C9000FF1F81E090E08C0F9D1FE80FF91F85A1D9
:100CA0008F9384A18F9387E491E09F938F935E014C
:100CB00095E0A90EB11CBF92AF920E94B50CB50190
:100CC000CE01C1960E94680110928A0580910201AE
:100CD0000F900F900F900F900F900F908130B9F5FB
:100CE000E1E8F0E08081887F808380818460808378
:100CF000CC0CDD1CE1E0F0E0EC0FFD1FEC0DFD1D68
:100D000064A175A180E090E00E94890B9B01AC0179
:100D100060E070E080E89FE30E94E80A20E030E0B5
:100D200040E05FE30E94170C20E034E244E757E420
:100D30000E94170C20E030E040E85FE30E947B0A4D
:100D40000E945A0B7093890060938800E2C0E1E82A
:100D5000F0E08081887F80838081816080838EE461
:100D600095E090938900809388000230A1F028F4E8
:100D7000002349F0013059F0CCC00430A1F078F0E4
:100D80000530A9F0C6C081E080930101C2C082E0B5
:100D900080930101BEC084E080930101BAC088E065
:100DA00080930101B6C080E180930101B2C080E26E
:100DB00080930101AEC080910201823019F410923B
:100DC000020105C0809102018F5F809302014CE017
:100DD00062E0CE01C1960E948101809102018823C8
:100DE00019F0813041F00DC064E871E0CE01C19688
:100DF0000E94680106C066E871E0CE01C1960E94BB
:100E000068018091020190E0BC01660F771F660FB8
:100E1000771F660F771F680F791F8AE090E08C0FAD
:100E20009D1F680F791FCE01C1960E946801109224
:100E30008A05809102018130C9F5E1E8F0E0808106
:100E4000887F8083808184608083E02FF0E0EE0FD4
:100E5000FF1F81E090E08C0F9D1FE80FF91F64A138
:100E600075A180E090E00E94890B9B01AC0160E0DD
:100E700070E080E89FE30E94E80A20E030E040E074
:100E80005FE30E94170C20E034E244E757E40E943D
:100E9000170C20E030E040E85FE30E947B0A0E94EC
:100EA0005A0B709389006093880033C0E1E8F0E04A
:100EB0008081887F80838081816080838EE495E05B
:100EC00090938900809388000230A1F028F40023D9
:100ED00049F0013059F01DC00430A1F078F0053020
:100EE000A9F017C081E08093010113C082E08093D4
:100EF00001010FC084E0809301010BC088E0809362
:100F0000010107C080E18093010103C080E280936A
:100F1000010110928E0580918D05882309F40BCC78
:100F2000123009F443C028F4112361F0113021F18B
:100F300008C2143009F4A2C008F452C0153009F4F4
:100F400051C1FFC149E060E0CE01C1960E9481011C
:100F500067E871E0CE01C1960E94680149E061E056
:100F6000CE01C1960E9481016AE471E0CE01C19672
:100F70000E94680111E0E5C149E061E0CE01C1963F
:100F80000E94810167E871E0CE01C1960E9468016C
:100F900048E062E0CE01C1960E9481016AE471E0FE
:100FA000CE01C1960E94680112E0CBC149E060E029
:100FB000CE01C1960E9481016AE471E0CE01C19622
:100FC0000E94680148E062E0CE01C1960E94810162
:100FD00067E871E0CE01C1960E94680110E0B1C1DE
:100FE000809100018823B1F181508093000141E19B
:100FF00060E0CE01C1960E948101809100011F92A4
:101000008F9387E491E09F938F93CE0101966C01BB
:101010009F938F930E94B50CB601CE01C1960E949A
:101020006801809100010F900F900F900F900F902A
:101030000F908A3038F466E871E0CE01C1960E94C4
:10104000680108C0843630F467E871E0CE01C196CB
:101050000E9468016091000170E080E090E00E94D1
:101060008B0B2DEC3CEC43E252E40E94170C0E94E7
:101070005A0B709391056093900563C1002311F0A2
:10108000015001C005E04EE061E0CE01C1960E9432
:101090008101023018F0053070F407C066E871E095
:1010A000CE01C1960E94680106C067E871E0CE01DA
:1010B000C1960E946801C02ED12CF601EE0FFF1FD1
:1010C00081E090E08C0F9D1FE80FF91F85A18F93A1
:1010D00084A18F9387E491E09F938F935E0195E0C5
:1010E000A90EB11CBF92AF920E94B50CB501CE0102
:1010F000C1960E94680110928A05809102010F90AA
:101100000F900F900F900F900F908130B9F5E1E89C
:10111000F0E08081887F8083808184608083CC0C34
:10112000DD1CE1E0F0E0EC0FFD1FEC0DFD1D64A106
:1011300075A180E090E00E94890B9B01AC0160E00A
:1011400070E080E89FE30E94E80A20E030E040E0A1
:101150005FE30E94170C20E034E244E757E40E946A
:10116000170C20E030E040E85FE30E947B0A0E9419
:101170005A0B7093890060938800E3C0E1E8F0E0C7
:101180008081887F80838081816080838EE495E088
:1011900090938900809388000230A1F028F4002306
:1011A00049F0013059F0CDC00430A1F078F005309D
:1011B000A9F0C7C081E080930101C3C082E08093A1
:1011C0000101BFC084E080930101BBC088E080932F
:1011D0000101B7C080E180930101B3C080E2809338
:1011E0000101AFC080910201811104C082E08093AF
:1011F000020105C0809102018150809302014CE000
:1012000062E0CE01C1960E94810180910201882393
:1012100019F0813041F00DC064E871E0CE01C19653
:101220000E94680106C066E871E0CE01C1960E9486
:1012300068018091020190E0BC01660F771F660F84
:10124000771F660F771F680F791F8AE090E08C0F79
:101250009D1F680F791FCE01C1960E9468011092F0
:101260008A05809102018130C9F5E1E8F0E08081D2
:10127000887F8083808184608083E02FF0E0EE0FA0
:10128000FF1F81E090E08C0F9D1FE80FF91F64A104
:1012900075A180E090E00E94890B9B01AC0160E0A9
:1012A00070E080E89FE30E94E80A20E030E040E040
:1012B0005FE30E94170C20E034E244E757E40E9409
:1012C000170C20E030E040E85FE30E947B0A0E94B8
:1012D0005A0B709389006093880033C0E1E8F0E016
:1012E0008081887F80838081816080838EE495E027
:1012F00090938900809388000230A1F028F40023A5
:1013000049F0013059F01DC00430A1F078F00530EB
:10131000A9F017C081E08093010113C082E080939F
:1013200001010FC084E0809301010BC088E080932D
:10133000010107C080E18093010103C080E2809336
:10134000010110928D05F7C91F920F920FB60F92EF
:1013500011242F938F939F934A9B0EC02FEF80E70A
:1013600092E0215080409040E1F700C000004A998F
:10137000FECF81E080938F054C9B0EC02FEF80E75E
:1013800092E0215080409040E1F700C000004C996D
:10139000FECF81E080938E054F9B0EC02FEF80E73C
:1013A00092E0215080409040E1F700C000004F994A
:1013B000FECF81E080938D05489904C081E0809341
:1013C0008C0503C082E080938C059F918F912F91B3
:1013D0000F900FBE0F901F9018951F920F920FB68F
:1013E0000F9211242F933F934F935F936F937F93AB
:1013F0008F939F93AF93BF93EF93FF9380910201DD
:10140000813029F008F442C08230D9F063C0809165
:101410008B0581110AC080919005909191050E94E1
:10142000FE0081E080938B0555C080918B05813053
:1014300009F050C080E090E00E94FE0010928B0501
:1014400049C0E0918A05F0E0EE0FFF1FE757FE4F1D
:10145000208131813695279536952795ABE7B4E104
:101460000E94A60C9695879520910001AC01249FBF
:10147000C001259F900D11240E94FE0090918A05C5
:1014800080910101890F80938A0524C0E0918A052B
:10149000F0E0EE0FFF1FE757FC4F208131813695BA
:1014A000279536952795ABE7B4E10E94A60C969553
:1014B000879520910001AC01249FC001259F900DCC
:1014C00011240E94FE0090918A0580910101890FEC
:1014D00080938A05FF91EF91BF91AF919F918F917A
:1014E0007F916F915F914F913F912F910F900FBE20
:1014F0000F901F9018955058BB27AA270E94930A57
:101500000C94DD0B0E94CF0B38F00E94D60B20F01C
:1015100039F49F3F19F426F40C94CC0B0EF4E095AB
:10152000E7FB0C94C60BE92F0E94EE0B58F3BA1799
:10153000620773078407950720F079F4A6F50C94E9
:10154000100C0EF4E0950B2EBA2FA02D0B01B90153
:1015500090010C01CA01A0011124FF27591B99F029
:10156000593F50F4503E68F11A16F040A22F232F35
:10157000342F4427585FF3CF469537952795A79585
:10158000F0405395C9F77EF41F16BA0B620B730B2C
:10159000840BBAF09150A1F0FF0FBB1F661F771F9D
:1015A000881FC2F70EC0BA0F621F731F841F48F452
:1015B000879577956795B795F7959E3F08F0B0CFDB
:1015C0009395880F08F09927EE0F979587950895C2
:1015D0000E94FC0A0C94DD0B0E94D60B58F00E946E
:1015E000CF0B40F029F45F3F29F00C94C60B51114A
:1015F0000C94110C0C94CC0B0E94EE0B68F3992305
:10160000B1F3552391F3951B550BBB27AA276217FE
:101610007307840738F09F5F5F4F220F331F441F0B
:10162000AA1FA9F335D00E2E3AF0E0E832D091503F
:101630005040E695001CCAF72BD0FE2F29D0660F2C
:10164000771F881FBB1F261737074807AB07B0E86F
:1016500009F0BB0B802DBF01FF2793585F4F3AF075
:101660009E3F510578F00C94C60B0C94110C5F3F13
:10167000E4F3983ED4F3869577956795B795F795FB
:101680009F5FC9F7880F911D9695879597F90895E3
:10169000E1E0660F771F881FBB1F6217730784077F
:1016A000BA0720F0621B730B840BBA0BEE1F88F78E
:1016B000E09508950E94F60B88F09F5798F0B92F97
:1016C0009927B751B0F0E1F0660F771F881F991F77
:1016D0001AF0BA95C9F714C0B13091F00E94100CFD
:1016E000B1E008950C94100C672F782F8827B85F0D
:1016F00039F0B93FCCF3869577956795B395D9F7CF
:101700003EF490958095709561957F4F8F4F9F4FD8
:101710000895E89409C097FB3EF4909580957095E4
:1017200061957F4F8F4F9F4F9923A9F0F92F96E92D
:10173000BB279395F695879577956795B795F111A2
:10174000F8CFFAF4BB0F11F460FF1BC06F5F7F4F3F
:101750008F4F9F4F16C0882311F096E911C0772351
:1017600021F09EE8872F762F05C0662371F096E85A
:10177000862F70E060E02AF09A95660F771F881F29
:10178000DAF7880F9695879597F9089597F99F67E7
:1017900080E870E060E008959FEF80EC08950024F9
:1017A0000A941616170618060906089500240A94C6
:1017B00012161306140605060895092E0394000C4C
:1017C00011F4882352F0BB0F40F4BF2B11F460FFDB
:1017D00004C06F5F7F4F8F4F9F4F089557FD905804
:1017E000440F551F59F05F3F71F04795880F97FBE5
:1017F000991F61F09F3F79F087950895121613069F
:101800001406551FF2CF4695F1DF08C016161706CD
:101810001806991FF1CF8695710561050894089502
:10182000E894BB2766277727CB0197F908950E9494
:101830002A0C0C94DD0B0E94CF0B38F00E94D60BC3
:1018400020F0952311F00C94C60B0C94CC0B1124B2
:101850000C94110C0E94EE0B70F3959FC1F3950F41
:1018600050E0551F629FF001729FBB27F00DB11D24
:10187000639FAA27F00DB11DAA1F649F6627B00DB4
:10188000A11D661F829F2227B00DA11D621F739F9D
:10189000B00DA11D621F839FA00D611D221F749FAB
:1018A0003327A00D611D231F849F600D211D822FF2
:1018B000762F6A2F11249F5750409AF0F1F0882319
:1018C0004AF0EE0FFF1FBB1F661F771F881F915046
:1018D0005040A9F79E3F510580F00C94C60B0C9424
:1018E000110C5F3FE4F3983ED4F3869577956795A6
:1018F000B795F795E7959F5FC1F7FE2B880F911D70
:101900009695879597F90895A1E21A2EAA1BBB1BFD
:10191000FD010DC0AA1FBB1FEE1FFF1FA217B307BB
:10192000E407F50720F0A21BB30BE40BF50B661FD1
:10193000771F881F991F1A9469F760957095809595
:1019400090959B01AC01BD01CF010895A29FB0010C
:10195000B39FC001A39F700D811D1124911DB29FE3
:10196000700D811D1124911D0895AEE0B0E0EBEBE8
:10197000FCE00C94760F0D891E8986E08C831A8317
:1019800009838FEF9FE79E838D83AE01475E5F4F94
:101990006F89788DCE0101960E94D70CEF81F88572
:1019A000E00FF11F10822E96E4E00C94920FABE052
:1019B000B0E0EDEDFCE00C94680F6C017B018A0156
:1019C000FC0117821682838181FFCCC1CE01019672
:1019D0003C01F6019381F70193FD859193FF81917D
:1019E0007F01882309F4BAC1853239F493FD8591CA
:1019F00093FF81917F01853229F4B60190E00E9426
:101A0000CE0EE7CF912C212C312CFFE1F315D8F02D
:101A10008B3279F038F4803279F08332A1F4232DBF
:101A200020611DC08D3261F0803369F4232D216067
:101A300016C0832D8260382EE32DE4603E2E2AC02E
:101A4000F32DF8601DC037FC2DC020ED280F2A3083
:101A500040F08E32B9F436FC81C1232D2064322E41
:101A600019C036FE06C08AE0989E200D1124922EE1
:101A700011C0EAE02E9E200D1124222EF32DF062DB
:101A80003F2E08C08C3621F4832D8068382E02C08A
:101A9000883641F4F70193FD859193FF81917F0191
:101AA0008111B3CF982F9F7D9554933028F40C5F0C
:101AB0001F4F9FE399830DC0833631F0833771F058
:101AC000833509F059C021C0F801808189830E5FF8
:101AD0001F4F88248394912C530113C02801F2E0F6
:101AE0004F0E511CF801A080B18036FE03C0692D55
:101AF00070E002C06FEF7FEFC5010E94C30E4C0182
:101B00008201F32DFF773F2E16C0280122E0420EFE
:101B1000511CF801A080B18036FE03C0692D70E031
:101B200002C06FEF7FEFC5010E94B80E4C01F32D8C
:101B3000F0683F2E820133FC1BC0822D90E0881696
:101B40009906B0F4B60180E290E00E94CE0E2A948D
:101B5000F4CFF50137FC859137FE81915F01B60125
:101B600090E00E94CE0E21102A9421E0821A910862
:101B70008114910471F7E8C0843611F0893641F57B
:101B8000F80137FE07C060817181828193810C5F0B
:101B90001F4F08C060817181072E000C880B990BC4
:101BA0000E5F1F4FF32DFF763F2E97FF09C09095D4
:101BB0008095709561957F4F8F4F9F4FF0683F2EB6
:101BC0002AE030E0A3010E940A0F882E861845C043
:101BD000853731F4232D2F7EB22E2AE030E025C048
:101BE000932D997FB92E8F36C1F018F4883579F08E
:101BF000B5C0803719F0883721F0B0C0E92FE06117
:101C0000BE2EB4FE0DC0FB2DF460BF2E09C034FE05
:101C10000AC0292F2660B22E06C028E030E005C099
:101C200020E130E002C020E132E0F801B7FE07C059
:101C300060817181828193810C5F1F4F06C060813A
:101C4000718180E090E00E5F1F4FA3010E940A0F98
:101C5000882E8618FB2DFF773F2E36FE0DC0232DD4
:101C60002E7FA22E891458F434FE0BC032FC09C01A
:101C7000832D8E7EA82E05C0B82CA32C03C0B82CB3
:101C800001C0B92CA4FE0FC0FE01E80DF11D80813A
:101C9000803321F49A2D997EA92E09C0A2FE06C098
:101CA000B394B39404C08A2D867809F0B394A3FC4E
:101CB00011C0A0FE06C0B21488F4280C922C9B1808
:101CC0000EC0B21460F4B60180E290E00E94CE0E25
:101CD000B394F7CFB21418F42B1802C0982C212C0F
:101CE000A4FE10C0B60180E390E00E94CE0EA2FEDA
:101CF00017C0A1FC03C088E790E002C088E590E02F
:101D0000B6010CC08A2D867859F0A1FE02C08BE284
:101D100001C080E2A7FC8DE2B60190E00E94CE0EE9
:101D2000891438F4B60180E390E00E94CE0E9A94B4
:101D3000F7CF8A94F301E80DF11D8081B60190E0A0
:101D40000E94CE0E8110F5CF222009F442CEB601BA
:101D500080E290E00E94CE0E2A94F6CFF6018681B2
:101D6000978102C08FEF9FEF2B96E2E10C94840FD6
:101D7000FC010590615070400110D8F78095909556
:101D80008E0F9F1F0895FC0161507040019001105B
:101D9000D8F7809590958E0F9F1F08950F931F93EE
:101DA000CF93DF93FB01238121FD03C08FEF9FEFD2
:101DB0002CC022FF16C046815781248135814217ED
:101DC000530744F4A081B1819D012F5F3F4F3183C0
:101DD00020838C93268137812F5F3F4F3783268363
:101DE00014C08B01EC01FB010084F185E02D099505
:101DF000892BE1F6D80116968D919C911797019643
:101E000017969C938E931697CE01DF91CF911F91D9
:101E10000F910895FA01AA27283051F1203181F15C
:101E2000E8946F936E7F6E5F7F4F8F4F9F4FAF4FE2
:101E3000B1E03ED0B4E03CD0670F781F891F9A1FF5
:101E4000A11D680F791F8A1F911DA11D6A0F711DA9
:101E5000811D911DA11D20D009F468943F912AE0B5
:101E6000269F11243019305D3193DEF6CF0108959D
:101E7000462F4770405D4193B3E00FD0C9F7F6CFCE
:101E8000462F4F70405D4A3318F0495D31FD405296
:101E9000419302D0A9F7EACFB4E0A695979587952C
:101EA00077956795BA95C9F700976105710508950B
:101EB0009B01AC010A2E06945795479537952795B7
:101EC000BA95C9F7620F731F841F951FA01D08954F
:101ED0002F923F924F925F926F927F928F929F923A
:101EE000AF92BF92CF92DF92EF92FF920F931F9328
:101EF000CF93DF93CDB7DEB7CA1BDB0B0FB6F894D9
:101F0000DEBF0FBECDBF09942A88398848885F8418
:101F10006E847D848C849B84AA84B984C884DF8089
:101F2000EE80FD800C811B81AA81B981CE0FD11D6D
:101F30000FB6F894DEBF0FBECDBFED010895F89443
:021F4000FFCFD1
:101F420032010153696E6500000000005371756132
:101F52007265000000547269616E676C65002E0044
:101F62005C00B8007001E002C005416D706C6974DC
:101F7200756465004672657175656E6379005761B7
:101F82007665666F726D002564003C00487A0055E4
:101F92007020202020446F776E2020202053656C13
:101FA20065637400415558204D4F4445003E00552D
:101FB2007020202020446F776E2020202020204295
:101FC20061636B002020202000000020004000619F
:101FD200008100A100C100E200020122014201636E
:101FE200018301A301C301E4010402240244026546
:101FF200028502A502C502E602060326034603671E
:10200200038703A703C703E80308042804480469F5
:10201200048904A904C904EA040A052A054A056ACE
:10202200058B05AB05CB05EB050C062C064C066CA7
:10203200068D06AD06CD06ED060E072E074E076E7F
:10204200078F07AF07CF07EF071008300850087057
:10205200089108B108D108F108120932095209722F
:10206200099309B309D309F309140A340A540A7407
:102072000A950AB50AD50AF50A150B360B560B76E0
:102082000B960BB70BD70BF70B170C380C580C78B9
:102092000C980CB90CD90CF90C190D3A0D5A0D7A91
:1020A2000D9A0DBB0DDB0DFB0D1B0E3C0E5C0E7C69
:1020B2000E9C0EBD0EDD0EFD0E1D0F3E0F5E0F7E41
:1020C2000F9E0FBF0FDF0FFF0FDF0FBF0F9F0F7F9F
:1020D2000F5F0F3F0F1F0FFF0EDF0EBF0E9F0E7F12
:1020E2000E5F0E3F0E1F0EFF0DDF0DBF0D9F0D7F0A
:1020F2000D5F0D3F0D1F0DFF0CDF0CBF0C9F0C7F02
:102102000C5F0C3F0C1F0CFF0BDF0BBF0B9F0B7FF9
:102112000B5F0B3F0B1F0BFF0ADF0ABF0A9F0A7FF1
:102122000A5F0A3F0A1F0AFF09DF09BF099F097FE9
:10213200095F093F091F09FF08DF08BF089F087FE1
:10214200085F083F081F080008E007C007A00780D3
:10215200076007400720070007E006C006A00680C8
:10216200066006400620060006E005C005A00580C0
:10217200056005400520050005E004C004A00480B8
:10218200046004400420040004E003C003A00380B0
:10219200036003400320030003E002C002A00280A8
:1021A200026002400220020002E001C001A00180A0
:1021B200016001400120010001E000C000A0008098
:1021C200006000400020000000FF0731086308960D
:1021D20008C808FA082B095D098E09C009F009210F
:1021E2000A510A810AB10AE00A0E0B3D0B6A0B97EB
:1021F2000BC40BF00B1B0C460C700C9A0CC20CEAB5
:102202000C120D380D5E0D820DA60DCA0DEC0D0DD2
:102212000E2D0E4D0E6B0E890EA50EC00EDB0EF4AA
:102222000E0C0F230F390F4E0F620F750F860F978B
:102232000FA60FB40FC10FCC0FD70FE00FE80FEFAF
:102242000FF40FF80FFC0FFD0FFE0FFD0FFC0FF840
:102252000FF40FEF0FE80FE00FD70FCC0FC10FB441
:102262000FA60F970F860F750F620F4E0F390F23B0
:102272000F0C0FF40EDB0EC00EA50E890E6B0E4D69
:102282000E2D0E0D0EEC0DCA0DA60D820D5E0D3833
:102292000D120DEA0CC20C9A0C700C460C1B0CF0C1
:1022A2000BC40B970B6A0B3D0B0E0BE00AB10A81B4
:1022B2000A510A210AF009C0098E095D092B09FA9F
:1022C20008C808960863083108FF07CD079B07680E
:1022D2000736070407D306A10670063E060E06DD82
:1022E20005AD057D054D051E05F004C10494046786
:1022F200043A040E04E303B8038E0364033C03149C
:1023020003EC02C602A0027C02580234021202F15D
:1023120001D101B1019301750159013E0123010A65
:1023220001F200DB00C500B0009C00890078006764
:102332000058004A003D00320027001E0016000F20
:10234200000A00060002000100000001000200066F
:10235200000A000F0016001E00270032003D004A4E
:102362000058006700780089009C00B000C500DBBF
:1023720000F2000A0123013E01590175019301B1E6
:1023820001D101F1011202340258027C02A002C6FC
:1023920002EC0214033C0364038E03B803E3030E4E
:1023A200043A0467049404C104F0041E054D057D3B
:1023B20005AD05DD050E063E067006A106D3060430
:0A23C20007360768079B07CD0700E8
:00000001FF
