S01F0000427574746F6E735F776974685F496E74657272757074732E737265635C
S11300000C945A000C9464000C9464000C946400E6
S11300100C9464000C9466000C9464000C946400CA
S11300200C9464000C9464000C9464000C946400BC
S11300300C9464000C9464000C9464000C946400AC
S11300400C9464000C9464000C9464000C9464009C
S11300500C9464000C9464000C9464000C9464008C
S11300600C9464000C9464000C9464000C9464007C
S11300700C9464000C9464000C9464000C9464006C
S11300800C9464000C9464000C9464000C9464005C
S11300900C9464000C9464000C9464000C9464004C
S11300A00C9464000C9464000C9464000C9464003C
S11300B00C94640011241FBECFEFD8E0DEBFCDBF87
S11300C00E947B000C948D000C9400001F920F92F0
S11300D00FB60F9211248F934A9B04C085B180629E
S11300E085B903C085B18F7D85B98F910F900FBEFF
S11300F00F901F9018958AB184708AB984B1806278
S113010084B9E8E6F0E0808184608083EDE6F0E085
S11101108081846080837894FFCFF894FFCFC1
S9030000FC
