S01D000053656E696F725F44657369676E5F4C43445F4441432E7372656385
S11300000C9442040C945F040C945F040C945F04FD
S11300100C945F040C94030B0C945F040C945F0425
S11300200C945F040C945F040C945F040C94430BD5
S11300300C945F040C945F040C945F040C945F04B0
S11300400C945F040C945F040C945F040C945F04A0
S11300500C945F040C945F040C945F040C945F0490
S11300600C945F040C945F040C945F040C945F0480
S11300700C945F040C945F040C945F040C945F0470
S11300800C945F040C945F040C945F040C945F0460
S11300900C945F040C945F040C945F040C945F0450
S11300A00C945F040C945F040C945F040C945F0440
S11300B00C945F0400080D081A0827083308400848
S11300C04D085A086708740881088D089A08A7081B
S11300D0B408C108CE08DA08E708F40801090D09D4
S11300E01A092709340940094D095A09660973098F
S11300F080098C099909A609B209BF09CB09D80955
S1130100E409F109FD090A0A160A230A2F0A3B0A1F
S1130110480A540A600A6D0A790A850A910A9D0AF6
S1130120AA0AB60AC20ACE0ADA0AE60AF20AFE0ADB
S11301300A0B160B220B2D0B390B450B510B5C0BC9
S1130140680B740B7F0B8B0B960BA20BAD0BB90BCF
S1130150C40BCF0BDB0BE60BF10BFC0B070C130CE6
S11301601E0C290C340C3E0C490C540C5F0C6A0C0C
S1130170740C7F0C8A0C940C9F0CA90CB40CBE0C50
S1130180C90CD30CDD0CE70CF10CFB0C060D100DA7
S1130190190D230D2D0D370D410D4A0D540D5E0D16
S11301A0670D710D7A0D830D8D0D960D9F0DA80DA4
S11301B0B10DBA0DC30DCC0DD50DDE0DE60DEF0D51
S11301C0F80D000E090E110E190E220E2A0E320E13
S11301D03A0E420E4A0E520E5A0E620E6A0E710EFC
S11301E0790E800E880E8F0E970E9E0EA50EAC0E05
S11301F0B30EBA0EC10EC80ECF0ED60EDC0EE30E31
S1130200E90EF00EF60EFC0E030F090F0F0F150F7B
S11302101B0F210F270F2C0F320F380F3D0F430FE9
S1130220480F4D0F520F580F5D0F620F670F6B0F82
S1130230700F750F7A0F7E0F830F870F8B0F8F0F41
S1130240940F980F9C0FA00FA40FA70FAB0FAF0F25
S1130250B20FB60FB90FBC0FC00FC30FC60FC90F33
S1130260CC0FCF0FD10FD40FD70FD90FDC0FDE0F68
S1130270E00FE30FE50FE70FE90FEB0FEC0FEE0FC5
S1130280F00FF10FF30FF40FF60FF70FF80FF90F4C
S1130290FA0FFB0FFC0FFD0FFD0FFE0FFF0FFF0FFB
S11302A0FF0F0010001000100010001000100010CC
S11302B0FF0FFF0FFF0FFE0FFD0FFD0FFC0FFB0FD6
S11302C0FA0FF90FF80FF70FF60FF40FF30FF10F02
S11302D0F00FEE0FEC0FEB0FE90FE70FE50FE30F55
S11302E0E00FDE0FDC0FD90FD70FD40FD10FCF0FD4
S11302F0CC0FC90FC60FC30FC00FBC0FB90FB60F79
S1130300B20FAF0FAB0FA70FA40FA00F9C0F980F46
S1130310940F8F0F8B0F870F830F7E0F7A0F750F3C
S1130320700F6B0F670F620F5D0F580F520F4D0F59
S1130330480F430F3D0F380F320F2C0F270F210F9B
S11303401B0F150F0F0F090F030FFC0EF60EF00E07
S1130350E90EE30EDC0ED60ECF0EC80EC10EBA0E99
S1130360B30EAC0EA50E9E0E970E8F0E880E800E49
S1130370790E710E6A0E620E5A0E520E4A0E420E1B
S11303803A0E320E2A0E220E190E110E090E000E0E
S1130390F80DEF0DE60DDE0DD50DCC0DC30DBA0D28
S11303A0B10DA80D9F0D960D8D0D830D7A0D710D58
S11303B0670D5E0D540D4A0D410D370D2D0D230DA6
S11303C0190D100D060DFB0CF10CE70CDD0CD30C14
S11303D0C90CBE0CB40CA90C9F0C940C8A0C7F0C99
S11303E0740C6A0C5F0C540C490C3E0C340C290C34
S11303F01E0C130C070CFC0BF10BE60BDB0BCF0BE9
S1130400C40BB90BAD0BA20B960B8B0B7F0B740BB0
S1130410680B5C0B510B450B390B2D0B220B160B88
S11304200A0BFE0AF20AE60ADA0ACE0AC20AB60A77
S1130430AA0A9D0A910A850A790A6D0A600A540A71
S1130440480A3B0A2F0A230A160A0A0AFD09F10977
S1130450E409D809CB09BF09B209A60999098C098D
S11304608009730966095A094D09400934092709A5
S11304701A090D090109F408E708DA08CE08C108C9
S1130480B408A7089A088D088108740867085A08F0
S11304904D084008330827081A080D080008F30718
S11304A0E607D907CD07C007B307A60799078C0746
S11304B07F077307660759074C073F07320726076C
S11304C019070C07FF06F306E606D906CC06C00694
S11304D0B306A6069A068D068006740667065A06B3
S11304E04E064106350628061C060F060306F605C9
S11304F0EA05DD05D105C505B805AC05A0059305DC
S113050087057B056F05630556054A053E053205DB
S113051026051A050E050205F604EA04DE04D304D2
S1130520C704BB04AF04A40498048C0481047504B8
S11305306A045E04530447043C04310425041A0489
S11305400F040404F903ED03E203D703CC03C2034D
S1130550B703AC03A10396038C03810376036C03F6
S1130560610357034C03420337032D032303190389
S11305700F030503FA02F002E702DD02D302C90207
S1130580BF02B602AC02A20299028F0286027D0269
S113059073026A02610258024F0246023D023402AB
S11305A02B0222021A02110208020002F701EF01D3
S11305B0E701DE01D601CE01C601BE01B601AE01DE
S11305C0A6019E0196018F018701800178017101C6
S11305D0690162015B0154014D0146013F0138018B
S11305E031012A0124011D01170110010A0104012E
S11305F0FD00F700F100EB00E500DF00D900D400B6
S1130600CE00C800C300BD00B800B300AE00A8000F
S1130610A3009E009900950090008B008600820044
S11306207D007900750071006C0068006400600052
S11306305C005900550051004E004A004700440038
S113064040003D003A003700340031002F002C00F8
S1130650290027002400220020001D001B0019008F
S1130660170015001400120010000F000D000C00FC
S11306700A00090008000700060005000400030042
S1130680030002000100010001000000000000005E
S11306900000000000000000010001000100020051
S11306A00300030004000500060007000800090019
S11306B00A000C000D000F001000120014001500B9
S11306C0170019001B001D00200022002400270031
S11306D029002C002F003100340037003A003D007F
S11306E04000440047004A004E00510055005900A4
S11306F05C006000640068006C00710075007900A3
S11307007D00820086008B009000950099009E0079
S1130710A300A800AE00B300B800BD00C300C80029
S1130720CE00D400D900DF00E500EB00F100F700B3
S1130730FD0004010A01100117011D0124012A0111
S1130740310138013F0146014D0154015B01620151
S1130750690171017801800187018F0196019E0171
S1130760A601AE01B601BE01C601CE01D601DE016D
S1130770E701EF01F7010002080211021A02220246
S11307802B0234023D0246024F02580261026A0201
S113079073027D0286028F029902A202AC02B602A3
S11307A0BF02C902D302DD02E702F002FA02050326
S11307B00F03190323032D03370342034C03570389
S11307C061036C03760381038C039603A103AC03DA
S11307D0B703C203CC03D703E203ED03F903040414
S11307E00F041A04250431043C04470453045E0432
S11307F06A04750481048C049804A404AF04BB0443
S1130800C704D304DE04EA04F60402050E051A053F
S1130810260532053E054A05560563056F057B0529
S113082087059305A005AC05B805C505D105DD050B
S1130830EA05F60503060F061C06280635064106DA
S11308404E065A066706740680068D069A06A606A4
S1130850B306C006CC06D906E606F306FF060C0767
S11308601907260732073F074C075907660773071E
S11308707F078C079907A607B307C007CD07D907D9
S1130880E607F30711241FBECFEFD8E0DEBFCDBFCC
S113089011E0A0E0B1E0E4E2F2E202C005900D92C2
S11308A0A838B107D9F721E0A8E8B1E001C01D924A
S11308B0A039B207E1F70E943D060C9410110C9484
S11308C000009B01AC011092B90060E074E284EF77
S11308D090E00E94F50DDA01C9014097A109B10920
S11308E0B695A795979587958093B8000895ECEBF6
S11308F0F0E0108294EA90839091BC009923E4F78D
S11309009091B900987F983011F09031B1F490E053
S1130910880F991F862B8093BB0084E88093BC00CA
S11309208091BC008823E4F78091B900887F8831E6
S113093031F0803431F480E008958AE0089580E055
S1130940089584E108958093BB0084E88093BC00FB
S11309508091BC008823E4F78091B900887F8832B5
S113096011F085E1089580E0089584E98093BC0046
S11309700895CF93C62F60E00E947704811108C0C8
S11309808C2F0E94A304811103C00E94B50480E04F
S1130990CF9108951092D9008CE08093D8000895E7
S11309A084EA8093DC008091DC008823E4F70895D6
S11309B084E98093DC0008958093DB0084E88093CD
S11309C0DC008091DC008823E4F70895CF93DF9363
S11309D0C82FD92F0E94D00484EC0E94DC048D2FF0
S11309E08F700E94DC048C2F0E94DC040E94D804C7
S11309F0DF91CF910895FC012381622B80810E94B5
S1130A00B904089528E0FC01238360E00E94FB04FC
S1130A1008950F931F93CF938C01C62F64600E9497
S1130A20FB048AE08A95F1F700C06C2F6B7FC80144
S1130A300E94FB0487EC90E00197F1F700C00000EE
S1130A40CF911F910F9108951F93CF93DF93EC01E2
S1130A50162F0E94FB04612FCE010E940905DF912D
S1130A60CF911F910895FF920F931F93CF93DF931C
S1130A708C01F42E862F807F90E1699FE001112480
S1130A80682F642BC8010E9424056C2F6F29C801AC
S1130A900E942405DF91CF911F910F91FF9008953B
S1130AA00F931F93CF93DF938C01EB01688106C0F2
S1130AB041E0C8010E943305219668816111F8CF95
S1130AC0DF91CF911F910F91089540E00E9433056B
S1130AD00895CF93DF9300D000D0CDB7DEB719824D
S1130AE020E42A8324E12B8324E52C83E1E0F0E055
S1130AF0EC0FFD1FE60FF11D6081640F60680E941A
S1130B0065050F900F900F900F90DF91CF9108958E
S1130B10CF93DF93EC0161E00E9465058FE39FE1D1
S1130B200197F1F700C0000040E060E0CE010E94B0
S1130B306905DF91CF91089562E00E9465058FE316
S1130B409FE10197F1F700C000000895FC01658161
S1130B50262F246025836C600E9465050895CF9339
S1130B60DF93CDB7DEB72E970FB6F894DEBF0FBE76
S1130B70CDBF888769874A871B862C8784E08D8749
S1130B8082E08E87423018F0822F88608C8722237F
S1130B9029F0413019F48C8584608C872FEF81EE25
S1130BA094E0215080409040E1F700C0000060E0F4
S1130BB0CE0108960E94FB042FEF83ED90E32150B1
S1130BC080409040E1F700C0000060E3CE01089649
S1130BD00E94FB048FE496E40197F1F700C0000043
S1130BE060E3CE0108960E9424058FE496E4019701
S1130BF0F1F700C0000060E3CE0108960E942405CE
S1130C0087E592E00197F1F700C0000060E2CE01B1
S1130C1008960E9424056C856062CE0108960E94A5
S1130C206505CE0108960E94A605CE0108960E948D
S1130C3088056E856460CE0108960E946505CE0124
S1130C4008960E949C0587E0FE013896DE01119605
S1130C5001900D928A95E1F729813A814B815C815B
S1130C606D817E818F8190E02E960FB6F894DEBF61
S1130C700FBECDBFDF91CF910895CF93DF93CDB752
S1130C80DEB7EF970FB6F894DEBF0FBECDBF8AB1C3
S1130C9084708AB98AB180718AB98AB180788AB934
S1130CA08BE1E2E0F1E0DE011A9601900D928A9563
S1130CB0E1F784E1EDE1F1E0DE01959601900D921A
S1130CC08A95E1F760EA76E881E090E00E946104A9
S1130CD020E044E064E187E20E94AF0529AF3AAF27
S1130CE04BAF5CAF6DAF7EAF8FAFCE01C9960E94A4
S1130CF0020540E060E0CE01C9960E94690561E307
S1130D0071E0CE01C9960E94500540E061E0CE0139
S1130D10C9960E9469056BE371E0CE01C9960E94F1
S1130D20500540E062E0CE01C9960E94690565E481
S1130D3071E0CE01C9960E945005E8E6F0E080819A
S1130D4084608083EDE6F0E0808184698083789418
S1130D500E94CA0441E160E0CE01C9960E9469057F
S1130D601F9282E38F930EE411E01F930F93CE0141
S1130D7001966C019F938F930E94260EB601CE01BB
S1130D80C9960E94500569E571E0CE01C9960E949A
S1130D90500549E060E0CE01C9960E94690561E50D
S1130DA071E0CE01C9960E9450054EE061E0CE018B
S1130DB0C9960E94690568E571E0CE01C9960E9452
S1130DC050058EA18F938DA18F931F930F938E0146
S1130DD00B5F1F4F1F930F930E94260EB801CE0185
S1130DE0C9960E94500542E161E0CE01C9960E9475
S1130DF0690563E571E0CE01C9960E9450054CE097
S1130E0062E0CE01C9960E94690566E571E0CE01F3
S1130E10C9960E94500580918C0190E0BC01660F38
S1130E20771F660F771F660F771F860F971F6AE07D
S1130E3070E06C0F7D1F680F791FCE01C9960E9468
S1130E40500540E063E0CE01C9960E9469056BE558
S1130E5071E0CE01C9960E945005E1E8F0E080817E
S1130E6088608083AFE6B0E08C9182608C93789444
S1130E7089E196E090938900809388008081846062
S1130E8080830FB6F894DEBF0FBECDBF00E00F2EF7
S1130E90F2E3FF2EF02D10E080918C01811110C03F
S1130EA0E02FF0E0EE0FFF1F81E090E08C0F9D1F1C
S1130EB0E80FF91F64A175A18F2D90E00E94C00B6B
S1130EC080918F01882309F4F7C0123009F45BC0C4
S1130ED028F4112361F0113081F1ECC0143009F4CD
S1130EE09EC008F476C0153009F4BFC0E3C040E1E9
S1130EF060E0CE01C9960E94690560E771E0CE0109
S1130F00C9960E94500549E060E0CE01C9960E944E
S1130F10690569E571E0CE01C9960E94500540E07B
S1130F2063E0CE01C9960E94690562E771E0CE01D3
S1130F30C9960E94500513E0BDC04CE061E0CE01AB
S1130F40C9960E94690560E771E0CE01C9960E94C6
S1130F50500549E061E0CE01C9960E94690569E542
S1130F6071E0CE01C9960E94500540E063E0CE01D5
S1130F70C9960E94690562E771E0CE01C9960E9494
S1130F80500514E097C04BE062E0CE01C9960E9480
S1130F90690560E771E0CE01C9960E94500548E0FA
S1130FA062E0CE01C9960E94690569E571E0CE014F
S1130FB0C9960E94500540E063E0CE01C9960E94A4
S1130FC0690562E771E0CE01C9960E94500515E0FB
S1130FD071C049E060E0CE01C9960E94690561E5EF
S1130FE071E0CE01C9960E94500540E160E0CE0157
S1130FF0C9960E94690569E571E0CE01C9960E940F
S1131000500540E063E0CE01C9960E9469056BE596
S113101071E0CE01C9960E94500510E04BC049E032
S113102061E0CE01C9960E94690561E571E0CE01D7
S1131030C9960E9450054CE061E0CE01C9960E9419
S1131040690569E571E0CE01C9960E94500540E04A
S113105063E0CE01C9960E9469056BE571E0CE019B
S1131060C9960E94500511E025C048E062E0CE0117
S1131070C9960E94690561E571E0CE01C9960E9496
S113108050054BE062E0CE01C9960E94690569E50E
S113109071E0CE01C9960E94500540E063E0CE01A4
S11310A0C9960E9469056BE571E0CE01C9960E945C
S11310B0500512E010928F0180918E01882309F46B
S11310C04EC1123009F443C028F4112361F01130E9
S11310D021F143C1143009F49CC008F452C0153006
S11310E009F4FFC03AC149E060E0CE01C9960E940C
S11310F0690569E571E0CE01C9960E94500548E092
S113110062E0CE01C9960E94690561E571E0CE01F5
S1131110C9960E94500512E020C149E060E0CE016A
S1131120C9960E94690561E571E0CE01C9960E94E5
S1131130500549E061E0CE01C9960E94690569E560
S113114071E0CE01C9960E94500510E006C149E045
S113115061E0CE01C9960E94690561E571E0CE01A6
S1131160C9960E94500548E062E0CE01C9960E94EB
S1131170690569E571E0CE01C9960E94500511E048
S1131180ECC093E69F1590F1F39441E160E0CE0149
S1131190C9960E9469051F92FF928EE491E09F9385
S11311A08F93CE0101966C019F938F930E94260E1C
S11311B0B601CE01C9960E9450050F900F900F9072
S11311C00F900F900F9099E09F1538F068E571E04B
S11311D0CE01C9960E94500509C083E68F1530F0F0
S11311E069E571E0CE01C9960E9450056F2D70E04B
S11311F080E090E00E94FC0C2DEC3CEC43E252E4D5
S11312000E94880D0E94CB0C709301016093000131
S1131210A4C0093011F00F5F01C000E04EE061E0AE
S1131220CE01C9960E946905023018F0073070F4A7
S113123007C068E571E0CE01C9960E94500506C05A
S113124069E571E0CE01C9960E945005E02FF0E0F7
S1131250EE0FFF1F81E090E08C0F9D1FE80FF91F38
S1131260C4A0D5A0DF92CF928EE491E09F938F9398
S11312705E0195E0A90EB11CBF92AF920E94260EAA
S1131280B501CE01C9960E945005B60180E090E0F8
S11312900E94FA0C9B01AC0160E070E080E89FE3DF
S11312A00E94590C20E030E040E05FE30E94880D8A
S11312B020E034E244E757E40E94880D20E030E067
S11312C040E85FE30E94EC0B0E94CB0C7093890012
S11312D0609388000F900F900F900F900F900F90D5
S11312E03CC080918C01823019F410928C0105C0AD
S11312F080918C018F5F80938C014CE062E0CE0181
S1131300C9960E94690580918C01882319F0813067
S113131041F00DC066E571E0CE01C9960E9450050A
S113132006C068E571E0CE01C9960E94500580911F
S11313308C0190E0BC01660F771F660F771F660F64
S1131340771F680F791F8AE090E08C0F9D1F680F4C
S1131350791FCE01C9960E94500510928E0180918A
S11313608D01882309F498CD123009F443C028F480
S1131370112361F0113021F143C1143009F49BC0F1
S113138008F452C0153009F4FEC03AC149E060E0E7
S1131390CE01C9960E94690569E571E0CE01C9963E
S11313A00E94500549E061E0CE01C9960E9469059A
S11313B061E571E0CE01C9960E94500511E020C19B
S11313C049E061E0CE01C9960E94690569E571E0D2
S11313D0CE01C9960E94500548E062E0CE01C9964C
S11313E00E94690561E571E0CE01C9960E9450052D
S11313F012E006C149E060E0CE01C9960E94690589
S113140061E571E0CE01C9960E94500548E062E0B2
S1131410CE01C9960E94690569E571E0CE01C996BD
S11314200E94500510E0ECC0FF2091F1FA9441E1D4
S113143060E0CE01C9960E9469051F92FF928EE476
S113144091E09F938F93CE0101966C019F938F93AC
S11314500E94260EB601CE01C9960E9450050F9037
S11314600F900F900F900F900F9099E09F1538F008
S113147068E571E0CE01C9960E94500509C083E673
S11314808F1530F069E571E0CE01C9960E945005D0
S11314906F2D70E080E090E00E94FC0C2DEC3CECA1
S11314A043E252E40E94880D0E94CB0C7093010128
S11314B060930001A5C0002311F0015001C009E0B0
S11314C04EE061E0CE01C9960E946905023018F031
S11314D0073070F407C068E571E0CE01C9960E9438
S11314E0500506C069E571E0CE01C9960E94500519
S11314F0E02FF0E0EE0FFF1F81E090E08C0F9D1FC6
S1131500E80FF91FC4A0D5A0DF92CF928EE491E03A
S11315109F938F935E0195E0A90EB11CBF92AF9289
S11315200E94260EB501CE01C9960E945005B6014F
S113153080E090E00E94FA0C9B01AC0160E070E056
S113154080E89FE30E94590C20E030E040E05FE334
S11315500E94880D20E034E244E757E40E94880D9D
S113156020E030E040E85FE30E94EC0B0E94CB0CEB
S113157070938900609388000F900F900F900F90E4
S11315800F900F903DC080918C01811104C082E0C6
S113159080938C0105C080918C01815080938C01D3
S11315A04CE062E0CE01C9960E94690580918C01ED
S11315B0882319F0813041F00DC066E571E0CE0159
S11315C0C9960E94500506C068E571E0CE01C9962F
S11315D00E94500580918C0190E0BC01660F771F3A
S11315E0660F771F660F771F680F791F8AE090E0F8
S11315F08C0F9D1F680F791FCE01C9960E9450055C
S113160010928D0149CC1F920F920FB60F921124A4
S11316102F938F939F934A9B0EC02FEF80E792E006
S1131620215080409040E1F700C000004A99FECF6D
S113163081E080938F014C9B0EC02FEF80E792E0F6
S1131640215080409040E1F700C000004C99FECF4B
S113165081E080938E014F9B0EC02FEF80E792E0D4
S1131660215080409040E1F700C000004F99FECF28
S113167081E080938D019F918F912F910F900FBEE8
S11316800F901F9018951F920F920FB60F9211246E
S11316902F933F934F935F936F937F938F939F9376
S11316A0AF93BF93EF93FF9380918C01813019F036
S11316B08230D9F054C080918B0181110AC080918D
S11316C00001909101010E94E60481E080938B0166
S11316D046C080918B01813009F041C080E090E0E8
S11316E00E94E60410928B013AC080918901909186
S11316F08A010E94E604809188018823C9F08091C0
S1131700890190918A01C29690938A0180938901FC
S11317108091890190918A018F3F9F4004F110923A
S113172088018FEF9FE090938A018093890117C00D
S11317308091890190918A01C29790938A01809344
S113174089018091890190918A01181619063CF04B
S113175081E08093880110928A0110928901FF919F
S1131760EF91BF91AF919F918F917F916F915F9115
S11317704F913F912F910F900FBE0F901F9018958E
S11317800F931F93CF93DF938C01C0E0D0E01BC075
S1131790FE01EE0FFF1FEC54FF4F85919491809F43
S11317A09001819F300D909F300D1124369527951F
S11317B036952795ABE7B4E10E94170E9695879569
S11317C00E94E604A896C83E83E0D80708F3DF9198
S11317D0CF911F910F9108955058BB27AA270E94BB
S11317E0040C0C944E0D0E94400D38F00E94470DDD
S11317F020F039F49F3F19F426F40C943D0D0EF4B7
S1131800E095E7FB0C94370DE92F0E945F0D58F328
S1131810BA17620773078407950720F079F4A6F5D1
S11318200C94810D0EF4E0950B2EBA2FA02D0B0114
S1131830B90190010C01CA01A0011124FF27591B11
S113184099F0593F50F4503E68F11A16F040A22F17
S1131850232F342F4427585FF3CF46953795279588
S1131860A795F0405395C9F77EF41F16BA0B620B87
S1131870730B840BBAF09150A1F0FF0FBB1F661FCE
S1131880771F881FC2F70EC0BA0F621F731F841F11
S113189048F4879577956795B795F7959E3F08F037
S11318A0B0CF9395880F08F09927EE0F97958795F9
S11318B008950E946D0C0C944E0D0E94470D58F033
S11318C00E94400D40F029F45F3F29F00C94370D3D
S11318D051110C94820D0C943D0D0E945F0D68F320
S11318E09923B1F3552391F3951B550BBB27AA27D5
S11318F062177307840738F09F5F5F4F220F331F0F
S1131900441FAA1FA9F335D00E2E3AF0E0E832D0D6
S113191091505040E695001CCAF72BD0FE2F29D0D9
S1131920660F771F881FBB1F261737074807AB07AB
S1131930B0E809F0BB0B802DBF01FF2793585F4F20
S11319403AF09E3F510578F00C94370D0C94820DBB
S11319505F3FE4F3983ED4F3869577956795B79502
S1131960F7959F5FC9F7880F911D9695879597F90D
S11319700895E1E0660F771F881FBB1F6217730786
S11319808407BA0720F0621B730B840BBA0BEE1F9B
S113199088F7E09508950E94670D88F09F5798F0A6
S11319A0B92F9927B751B0F0E1F0660F771F881F60
S11319B0991F1AF0BA95C9F714C0B13091F00E947A
S11319C0810DB1E008950C94810D672F782F88273D
S11319D0B85F39F0B93FCCF3869577956795B395A1
S11319E0D9F73EF490958095709561957F4F8F4F10
S11319F09F4F0895E89409C097FB3EF49095809515
S1131A00709561957F4F8F4F9F4F9923A9F0F92FC0
S1131A1096E9BB279395F695879577956795B7953E
S1131A20F111F8CFFAF4BB0F11F460FF1BC06F5F24
S1131A307F4F8F4F9F4F16C0882311F096E911C036
S1131A40772321F09EE8872F762F05C0662371F057
S1131A5096E8862F70E060E02AF09A95660F771F6B
S1131A60881FDAF7880F9695879597F9089597F95F
S1131A709F6780E870E060E008959FEF80EC089530
S1131A8000240A9416161706180609060895002459
S1131A900A9412161306140605060895092E0394D3
S1131AA0000C11F4882352F0BB0F40F4BF2B11F447
S1131AB060FF04C06F5F7F4F8F4F9F4F089557FDA6
S1131AC09058440F551F59F05F3F71F04795880FA8
S1131AD097FB991F61F09F3F79F08795089512163F
S1131AE013061406551FF2CF4695F1DF08C01616EB
S1131AF017061806991FF1CF86957105610508949C
S1131B000895E894BB2766277727CB0197F90895B2
S1131B100E949B0D0C944E0D0E94400D38F00E94C3
S1131B20470D20F0952311F00C94370D0C943D0DC6
S1131B3011240C94820D0E945F0D70F3959FC1F3E4
S1131B40950F50E0551F629FF001729FBB27F00D67
S1131B50B11D639FAA27F00DB11DAA1F649F6627BC
S1131B60B00DA11D661F829F2227B00DA11D621F0B
S1131B70739FB00DA11D621F839FA00D611D221FC5
S1131B80749F3327A00D611D231F849F600D211DA9
S1131B90822F762F6A2F11249F5750409AF0F1F02C
S1131BA088234AF0EE0FFF1FBB1F661F771F881F95
S1131BB091505040A9F79E3F510580F00C94370D89
S1131BC00C94820D5F3FE4F3983ED4F386957795A9
S1131BD06795B795F795E7959F5FC1F7FE2B880F3B
S1131BE0911D9695879597F90895A1E21A2EAA1B3F
S1131BF0BB1BFD010DC0AA1FBB1FEE1FFF1FA217B9
S1131C00B307E407F50720F0A21BB30BE40BF50BB5
S1131C10661F771F881F991F1A9469F7609570953E
S1131C20809590959B01AC01BD01CF010895A29FC1
S1131C30B001B39FC001A39F700D811D1124911D9C
S1131C40B29F700D811D1124911D0895AEE0B0E086
S1131C50ECE2FEE00C94E7100D891E8986E08C838B
S1131C601A8309838FEF9FE79E838D83AE01475EBE
S1131C705F4F6F89788DCE0101960E94480EEF81E7
S1131C80F885E00FF11F10822E96E4E00C94031106
S1131C90ABE0B0E0EEE4FEE00C94D9106C017B0103
S1131CA08A01FC0117821682838181FFCCC1CE0197
S1131CB001963C01F6019381F70193FD859193FF11
S1131CC081917F01882309F4BAC1853239F493FDE7
S1131CD0859193FF81917F01853229F4B60190E0CB
S1131CE00E943F10E7CF912C212C312CFFE1F315FA
S1131CF0D8F08B3279F038F4803279F08332A1F461
S1131D00232D20611DC08D3261F0803369F4232DB1
S1131D10216016C0832D8260382EE32DE4603E2EB0
S1131D202AC0F32DF8601DC037FC2DC020ED280F0C
S1131D302A3040F08E32B9F436FC81C1232D206460
S1131D40322E19C036FE06C08AE0989E200D11245A
S1131D50922E11C0EAE02E9E200D1124222EF32D86
S1131D60F0623F2E08C08C3621F4832D8068382E13
S1131D7002C0883641F4F70193FD859193FF819168
S1131D807F018111B3CF982F9F7D9554933028F410
S1131D900C5F1F4F9FE399830DC0833631F0833767
S1131DA071F0833509F059C021C0F801808189831D
S1131DB00E5F1F4F88248394912C530113C0280174
S1131DC0F2E04F0E511CF801A080B18036FE03C032
S1131DD0692D70E002C06FEF7FEFC5010E943410DF
S1131DE04C018201F32DFF773F2E16C0280122E01B
S1131DF0420E511CF801A080B18036FE03C0692D4B
S1131E0070E002C06FEF7FEFC5010E9429104C0102
S1131E10F32DF0683F2E820133FC1BC0822D90E02D
S1131E2088169906B0F4B60180E290E00E943F1053
S1131E302A94F4CFF50137FC859137FE81915F0137
S1131E40B60190E00E943F1021102A9421E0821AEA
S1131E5091088114910471F7E8C0843611F0893631
S1131E6041F5F80137FE07C0608171818281938159
S1131E700C5F1F4F08C060817181072E000C880B16
S1131E80990B0E5F1F4FF32DFF763F2E97FF09C06E
S1131E9090958095709561957F4F8F4F9F4FF06817
S1131EA03F2E2AE030E0A3010E947B10882E861882
S1131EB045C0853731F4232D2F7EB22E2AE030E041
S1131EC025C0932D997FB92E8F36C1F018F488352B
S1131ED079F0B5C0803719F0883721F0B0C0E92F08
S1131EE0E061BE2EB4FE0DC0FB2DF460BF2E09C010
S1131EF034FE0AC0292F2660B22E06C028E030E046
S1131F0005C020E130E002C020E132E0F801B7FE74
S1131F1007C060817181828193810C5F1F4F06C06D
S1131F206081718180E090E00E5F1F4FA3010E94E9
S1131F307B10882E8618FB2DFF773F2E36FE0DC0B2
S1131F40232D2E7FA22E891458F434FE0BC032FCAC
S1131F5009C0832D8E7EA82E05C0B82CA32C03C0E7
S1131F60B82C01C0B92CA4FE0FC0FE01E80DF11D70
S1131F708081803321F49A2D997EA92E09C0A2FE76
S1131F8006C0B394B39404C08A2D867809F0B39440
S1131F90A3FC11C0A0FE06C0B21488F4280C922C35
S1131FA09B180EC0B21460F4B60180E290E00E9467
S1131FB03F10B394F7CFB21418F42B1802C0982C26
S1131FC0212CA4FE10C0B60180E390E00E943F10D3
S1131FD0A2FE17C0A1FC03C088E790E002C088E518
S1131FE090E0B6010CC08A2D867859F0A1FE02C09B
S1131FF08BE201C080E2A7FC8DE2B60190E00E9472
S11320003F10891438F4B60180E390E00E943F1039
S11320109A94F7CF8A94F301E80DF11D8081B601FB
S113202090E00E943F108110F5CF222009F442CEA7
S1132030B60180E290E00E943F102A94F6CFF601A8
S11320408681978102C08FEF9FEF2B96E2E10C947B
S1132050F510FC010590615070400110D8F780958F
S113206090958E0F9F1F0895FC0161507040019060
S11320700110D8F7809590958E0F9F1F08950F93A8
S11320801F93CF93DF93FB01238121FD03C08FEFC7
S11320909FEF2CC022FF16C04681578124813581D1
S11320A04217530744F4A081B1819D012F5F3F4F34
S11320B0318320838C93268137812F5F3F4F378371
S11320C0268314C08B01EC01FB010084F185E02D13
S11320D00995892BE1F6D80116968D919C91179755
S11320E0019617969C938E931697CE01DF91CF910C
S11320F01F910F910895FA01AA27283051F1203138
S113210081F1E8946F936E7F6E5F7F4F8F4F9F4F87
S1132110AF4FB1E03ED0B4E03CD0670F781F891FC9
S11321209A1FA11D680F791F8A1F911DA11D6A0F97
S1132130711D811D911DA11D20D009F468943F914A
S11321402AE0269F11243019305D3193DEF6CF0149
S11321500895462F4770405D4193B3E00FD0C9F70F
S1132160F6CF462F4F70405D4A3318F0495D31FD7C
S11321704052419302D0A9F7EACFB4E0A6959795CF
S1132180879577956795BA95C9F7009761057105A5
S113219008959B01AC010A2E0694579547953795EF
S11321A02795BA95C9F7620F731F841F951FA01D49
S11321B008952F923F924F925F926F927F928F92E7
S11321C09F92AF92BF92CF92DF92EF92FF920F93C2
S11321D01F93CF93DF93CDB7DEB7CA1BDB0B0FB6CC
S11321E0F894DEBF0FBECDBF09942A883988488889
S11321F05F846E847D848C849B84AA84B984C8841F
S1132200DF80EE80FD800C811B81AA81B981CE0F15
S1132210D11D0FB6F894DEBF0FBECDBFED010895FA
S1072220F894FFCF5C
S1132224FF0F53696E6500000000005371756172FD
S113223465000000547269616E676C6500140032B5
S1132244006400C8002C01F401BC02E803B004DCFF
S113225405416D706C6974756465004672657175C9
S1132264656E63790057617665666F726D002564E7
S1132274003C00487A0020202020005570202020B3
S113228420446F776E2020202053656C65637400AE
S11322943E00557020202020446F776E202020209B
S10B22A420204261636B00007D
S9030000FC
