S01300004C43445F4441435F4E434F2E73726563D8
S11300000C945A000C9477000C9477000C947700AD
S11300100C9477000C949D070C9477000C94770053
S11300200C9477000C9477000C9477000C94DD0703
S11300300C9477000C9477000C9477000C94770060
S11300400C9477000C9477000C9477000C94770050
S11300500C9477000C9477000C9477000C94770040
S11300600C9477000C9477000C9477000C94770030
S11300700C9477000C9477000C9477000C94770020
S11300800C9477000C9477000C9477000C94770010
S11300900C9477000C9477000C9477000C94770000
S11300A00C9477000C9477000C9477000C947700F0
S11300B00C94770011241FBECFEFD8E0DEBFCDBF74
S11300C015E0A0E0B1E0E8EBFAE102C005900D9282
S11300D0A038B107D9F725E0A0E8B5E001C01D922A
S11300E0A638B207E1F70E9455020C945A0D0C94FD
S11300F000009B01AC011092B90060E074E284EF4F
S113010090E00E944E0ADA01C9014097A109B109A1
S1130110B695A795979587958093B8000895ECEBCD
S1130120F0E0108294EA90839091BC009923E4F764
S11301309091B900987F983011F09031B1F490E02B
S1130140880F991F862B8093BB0084E88093BC00A2
S11301508091BC008823E4F78091B900887F8831BE
S113016031F0803431F480E008958AE0089580E02D
S1130170089584E108958093BB0084E88093BC00D3
S11301808091BC008823E4F78091B900887F88328D
S113019011F085E1089580E0089584E98093BC001E
S11301A00895CF93C62F60E00E948F00811108C08C
S11301B08C2F0E94BB00811103C00E94CD0080E0FF
S11301C0CF9108951092D9008CE08093D8000895BF
S11301D084EA8093DC008091DC008823E4F70895AE
S11301E084E98093DC0008958093DB0084E88093A5
S11301F0DC008091DC008823E4F70895CF93DF933B
S1130200C82FD92F0E94E80084EC0E94F4008D2F9F
S11302108F700E94F4008C2F0E94F4000E94F00062
S1130220DF91CF910895FC012381622B80810E948C
S1130230D100089528E0FC01238360E00E941301AB
S113024008950F931F93CF938C01C62F64600E946F
S113025013018AE08A95F1F700C06C2F6B7FC80107
S11302600E94130187EC90E00197F1F700C00000B1
S1130270CF911F910F9108951F93CF93DF93EC01BA
S1130280162F0E941301612FCE010E942101DF91DC
S1130290CF911F910895FF920F931F93CF93DF93F4
S11302A08C01F42E862F807F90E1699FE001112458
S11302B0682F642BC8010E943C016C2F6F29C80170
S11302C00E943C01DF91CF911F910F91FF900895FF
S11302D00F931F93CF93DF938C01EB01688106C0CA
S11302E041E0C8010E944B01219668816111F8CF59
S11302F0DF91CF911F910F91089540E00E944B012F
S11303000895CF93DF9300D000D0CDB7DEB7198224
S113031020E42A8324E12B8324E52C83E1E0F0E02C
S1130320EC0FFD1FE60FF11D6081640F60680E94F1
S11303307D010F900F900F900F90DF91CF91089552
S1130340CF93DF93EC0161E00E947D018FE39FE195
S11303500197F1F700C0000040E060E0CE010E9488
S11303608101DF91CF91089562E00E947D018FE3C6
S11303709FE10197F1F700C000000895FC01658139
S1130380262F246025836C600E947D010895CF93FD
S1130390DF93CDB7DEB72E970FB6F894DEBF0FBE4E
S11303A0CDBF888769874A871B862C8784E08D8721
S11303B082E08E87423018F0822F88608C87222357
S11303C029F0413019F48C8584608C872FEF81EEFD
S11303D094E0215080409040E1F700C0000060E0CC
S11303E0CE0108960E9413012FEF83ED90E3215074
S11303F080409040E1F700C0000060E3CE01089621
S11304000E9413018FE496E40197F1F700C0000005
S113041060E3CE0108960E943C018FE496E40197C4
S1130420F1F700C0000060E3CE0108960E943C0191
S113043087E592E00197F1F700C0000060E2CE0189
S113044008960E943C016C856062CE0108960E9469
S11304507D01CE0108960E94BE01CE0108960E943D
S1130460A0016E856460CE0108960E947D01CE01D4
S113047008960E94B40187E0FE013896DE011196C9
S113048001900D928A95E1F729813A814B815C8133
S11304906D817E818F8190E02E960FB6F894DEBF39
S11304A00FBECDBFDF91CF910895CF93DF93CDB72A
S11304B0DEB7E7970FB6F894DEBF0FBECDBF8AB1A3
S11304C084708AB98AB180718AB98AB180788AB90C
S11304D08BE1E3E0F1E0DE011A9601900D928A953A
S11304E0E1F78CE0EEE1F1E0DE01959601900D92EA
S11304F08A95E1F760EA76E881E090E00E9479006D
S113050020E044E064E187E20E94C70129AB3AABF2
S11305104BAB5CAB6DAB7EAB8FABCE01C1960E9497
S11305201A0140E060E0CE01C1960E9481016AE2B6
S113053071E0CE01C1960E94680140E061E0CE0105
S1130540C1960E94810164E371E0CE01C1960E94CC
S1130550680140E062E0CE01C1960E9481016EE331
S113056071E0CE01C1960E946801E8E6F0E0808166
S113057084608083EDE6F0E08081846980837894F0
S11305800E94E20041E160E0CE01C1960E94810137
S11305901F9282E38F9307E411E01F930F93CE0120
S11305A001966C019F938F930E94700AB601CE014D
S11305B0C1960E94680162E571E0CE01C1960E9475
S11305C0680149E060E0CE01C1960E9481016AE4BD
S11305D071E0CE01C1960E9468014EE061E0CE0157
S11305E0C1960E94810161E571E0CE01C1960E942D
S11305F068018EA18F938DA18F931F930F938E010A
S11306000B5F1F4F1F930F930E94700AB801CE0116
S1130610C1960E94680142E161E0CE01C1960E9448
S113062081016CE471E0CE01C1960E9468014CE046
S113063062E0CE01C1960E9481016FE471E0CE01B7
S1130640C1960E9468018091820590E0BC01660F0A
S1130650771F660F771F660F771F860F971F6AE055
S113066070E06C0F7D1F680F791FCE01C1960E9448
S1130670680140E063E0CE01C1960E94810164E517
S113068071E0CE01C1960E946801E1E8F0E080814A
S113069088608083AFE6B0E08C9182608C9378941C
S11306A089E196E09093890080938800808184603A
S11306B080830FB6F894DEBF0FBECDBF00E00F2ECF
S11306C0F2E3FF2EF02D10E08091820580918505E4
S11306D0882309F4F7C0123009F45BC028F411230D
S11306E061F0113081F1ECC0143009F49EC008F4BB
S11306F076C0153009F4BFC0E3C040E160E0CE012C
S1130700C1960E94810169E671E0CE01C1960E9402
S1130710680149E060E0CE01C1960E94810162E572
S113072071E0CE01C1960E94680140E063E0CE0111
S1130730C1960E9481016BE671E0CE01C1960E94D0
S1130740680113E0BDC04CE061E0CE01C1960E9497
S1130750810169E671E0CE01C1960E94680149E019
S113076061E0CE01C1960E94810162E571E0CE0193
S1130770C1960E94680140E063E0CE01C1960E94E8
S113078081016BE671E0CE01C1960E94680114E01C
S113079097C04BE062E0CE01C1960E94810169E6F8
S11307A071E0CE01C1960E94680148E062E0CE018A
S11307B0C1960E94810162E571E0CE01C1960E945A
S11307C0680140E063E0CE01C1960E9481016BE6BE
S11307D071E0CE01C1960E94680115E071C049E044
S11307E060E0CE01C1960E9481016AE471E0CE010D
S11307F0C1960E94680140E160E0CE01C1960E946A
S1130800810162E571E0CE01C1960E94680140E079
S113081063E0CE01C1960E94810164E571E0CE01DE
S1130820C1960E94680110E04BC049E061E0CE012E
S1130830C1960E9481016AE471E0CE01C1960E94D2
S113084068014CE061E0CE01C1960E94810162E53D
S113085071E0CE01C1960E94680140E063E0CE01E0
S1130860C1960E94810164E571E0CE01C1960E94A7
S1130870680111E025C048E062E0CE01C1960E9403
S113088081016AE471E0CE01C1960E9468014BE0E7
S113089062E0CE01C1960E94810162E571E0CE0161
S11308A0C1960E94680140E063E0CE01C1960E94B7
S11308B0810164E571E0CE01C1960E94680112E0F5
S11308C01092850580918405882309F498C112301B
S11308D009F443C028F4112361F0113021F18DC1D2
S11308E0143009F49CC008F452C0153009F449C10D
S11308F084C149E060E0CE01C1960E94810162E5B5
S113090071E0CE01C1960E94680148E062E0CE0128
S1130910C1960E9481016AE471E0CE01C1960E94F1
S1130920680112E06AC149E060E0CE01C1960E940C
S113093081016AE471E0CE01C1960E94680149E038
S113094061E0CE01C1960E94810162E571E0CE01B1
S1130950C1960E94680110E050C149E061E0CE01F7
S1130960C1960E9481016AE471E0CE01C1960E94A1
S1130970680148E062E0CE01C1960E94810162E50F
S113098071E0CE01C1960E94680111E036C193E680
S11309909F1590F1F39441E160E0CE01C1960E946D
S11309A081011F92FF9287E491E09F938F93CE0180
S11309B001966C019F938F930E94700AB601CE0139
S11309C0C1960E9468010F900F900F900F900F90A6
S11309D00F9099E09F1538F061E571E0CE01C19662
S11309E00E94680109C083E68F1530F062E571E06A
S11309F0CE01C1960E9468016F2D70E080E090E006
S1130A000E9455092DEC3CEC43E252E40E94E109BA
S1130A100E9424097093010160930001EEC0053027
S1130A2011F00F5F01C000E04EE061E0CE01C1961D
S1130A300E948101023018F0053070F407C061E5AE
S1130A4071E0CE01C1960E94680106C062E571E0C2
S1130A50CE01C1960E946801C02ED12CF601EE0F82
S1130A60FF1F81E090E08C0F9D1FE80FF91F85A107
S1130A708F9384A18F9387E491E09F938F935E017A
S1130A8095E0A90EB11CBF92AF920E94700AB50105
S1130A90CE01C1960E946801809182050F900F904B
S1130AA00F900F900F900F908130B9F5E1E8F0E0CE
S1130AB08081887F8083808184608083CC0CDD1C6E
S1130AC0E1E0F0E0EC0FFD1FEC0DFD1D64A175A14C
S1130AD080E090E00E9453099B01AC0160E070E06B
S1130AE080E89FE30E94B20820E030E040E05FE34A
S1130AF00E94E10920E034E244E757E40E94E1095E
S1130B0020E030E040E85FE30E9445080E942409A9
S1130B10709389006093880070C0E1E8F0E0808100
S1130B20887F808380818160808381E090E09093DE
S1130B308900809388000230A1F028F4002349F052
S1130B40013059F05AC00430A1F078F00530A9F012
S1130B5054C081E08093020150C082E0809302017E
S1130B604CC084E08093020148C088E08093020175
S1130B7044C080E18093020140C080E2809302017E
S1130B803CC080918205823019F41092820505C020
S1130B90809182058F5F809382054CE062E0CE01F4
S1130BA0C1960E94810180918205882319F08130C9
S1130BB041F00DC06FE471E0CE01C1960E9468015E
S1130BC006C061E571E0CE01C1960E946801809182
S1130BD0820590E0BC01660F771F660F771F660FD2
S1130BE0771F680F791F8AE090E08C0F9D1F680FB4
S1130BF0791FCE01C1960E946801109284058091EC
S1130C008305882309F460CD123009F443C028F425
S1130C10112361F0113021F18DC1143009F49BC00E
S1130C2008F452C0153009F448C184C149E060E0B9
S1130C30CE01C1960E94810162E571E0CE01C196A8
S1130C400E94680149E061E0CE01C1960E948101E1
S1130C506AE471E0CE01C1960E94680111E06AC1A4
S1130C6049E061E0CE01C1960E94810162E571E034
S1130C70CE01C1960E94680148E062E0CE01C196AF
S1130C800E9481016AE471E0CE01C1960E9468016C
S1130C9012E050C149E060E0CE01C1960E9481019A
S1130CA06AE471E0CE01C1960E94680148E062E006
S1130CB0CE01C1960E94810162E571E0CE01C19628
S1130CC00E94680110E036C1FF2091F1FA9441E1DD
S1130CD060E0CE01C1960E9481011F92FF9287E4D9
S1130CE091E09F938F93CE0101966C019F938F9314
S1130CF00E94700AB601CE01C1960E9468010F904D
S1130D000F900F900F900F900F9099E09F1538F06F
S1130D1061E571E0CE01C1960E94680109C083E6D5
S1130D208F1530F062E571E0CE01C1960E94680132
S1130D306F2D70E080E090E00E9455092DEC3CECB2
S1130D4043E252E40E94E1090E94240970930101E4
S1130D5060930001EFC0002311F0015001C005E0D1
S1130D604EE061E0CE01C1960E948101023018F08C
S1130D70053070F407C061E571E0CE01C1960E94B0
S1130D80680106C062E571E0CE01C1960E94680167
S1130D90C02ED12CF601EE0FFF1F81E090E08C0FE6
S1130DA09D1FE80FF91F85A18F9384A18F9387E47A
S1130DB091E09F938F935E0195E0A90EB11CBF92C1
S1130DC0AF920E94700AB501CE01C1960E946801DB
S1130DD0809182050F900F900F900F900F900F90BD
S1130DE08130B9F5E1E8F0E08081887F80838081FB
S1130DF084608083CC0CDD1CE1E0F0E0EC0FFD1F8F
S1130E00EC0DFD1D64A175A180E090E00E945309E2
S1130E109B01AC0160E070E080E89FE30E94B208AF
S1130E2020E030E040E05FE30E94E10920E034E2AA
S1130E3044E757E40E94E10920E030E040E85FE342
S1130E400E9445080E9424097093890060938800D9
S1130E5071C0E1E8F0E08081887F808380818160D7
S1130E60808381E090E09093890080938800023031
S1130E70A1F028F4002349F0013059F05BC004309C
S1130E80A1F078F00530A9F055C081E0809302010B
S1130E9051C082E0809302014DC084E0809302013E
S1130EA049C088E08093020145C080E1809302013B
S1130EB041C080E2809302013DC08091820581118E
S1130EC004C082E08093820505C080918205815030
S1130ED0809382054CE062E0CE01C1960E948101BC
S1130EE080918205882319F0813041F00DC06FE4B0
S1130EF071E0CE01C1960E94680106C061E571E00F
S1130F00CE01C1960E9468018091820590E0BC01E7
S1130F10660F771F660F771F660F771F680F791F9D
S1130F208AE090E08C0F9D1F680F791FCE01C19657
S1130F300E94680110928305C7CB1F920F920FB6CF
S1130F400F9211242F938F939F934A9B0EC02FEFE0
S1130F5080E792E0215080409040E1F700C000001B
S1130F604A99FECF81E0809385054C9B0EC02FEFFC
S1130F7080E792E0215080409040E1F700C00000FB
S1130F804C99FECF81E0809384054F9B0EC02FEFD8
S1130F9080E792E0215080409040E1F700C00000DB
S1130FA04F99FECF81E0809383059F918F912F917C
S1130FB00F900FBE0F901F9018951F920F920FB6AF
S1130FC00F9211242F933F934F935F936F937F93CB
S1130FD08F939F93AF93BF93EF93FF938091820579
S1130FE0813021F078F18230D1F03EC080918105CA
S1130FF081110AC080910001909101010E94FE00BC
S113100081E08093810530C080918105813061F554
S113101080E090E00E94FE001092810525C0E091DE
S11310208005F0E0EE0FFF1FE058FE4F80819181B4
S11310300E94FE009091800580910201890F8093A7
S1131040800512C0E0918005F0E0EE0FFF1FE0582C
S1131050FC4F808191810E94FE00909180058091D7
S11310600201890F80938005FF91EF91BF91AF91A9
S11310709F918F917F916F915F914F913F912F91AC
S11310800F900FBE0F901F9018955058BB27AA279A
S11310900E945D080C94A7090E94990938F00E94E7
S11310A0A00920F039F49F3F19F426F40C94960912
S11310B00EF4E095E7FB0C949009E92F0E94B8091F
S11310C058F3BA17620773078407950720F079F479
S11310D0A6F50C94DA090EF4E0950B2EBA2FA02D88
S11310E00B01B90190010C01CA01A0011124FF27D1
S11310F0591B99F0593F50F4503E68F11A16F040CC
S1131100A22F232F342F4427585FF3CF46953795CA
S11311102795A795F0405395C9F77EF41F16BA0B8F
S1131120620B730B840BBAF09150A1F0FF0FBB1F3D
S1131130661F771F881FC2F70EC0BA0F621F731F86
S1131140841F48F4879577956795B795F7959E3FE3
S113115008F0B0CF9395880F08F09927EE0F979574
S1131160879508950E94C6080C94A7090E94A009B7
S113117058F00E94990940F029F45F3F29F00C943B
S1131180900951110C94DB090C9496090E94B8093A
S113119068F39923B1F3552391F3951B550BBB27A2
S11311A0AA2762177307840738F09F5F5F4F220FE7
S11311B0331F441FAA1FA9F335D00E2E3AF0E0E8DE
S11311C032D091505040E695001CCAF72BD0FE2F28
S11311D029D0660F771F881FBB1F261737074807BC
S11311E0AB07B0E809F0BB0B802DBF01FF27935874
S11311F05F4F3AF09E3F510578F00C9490090C949F
S1131200DB095F3FE4F3983ED4F3869577956795C1
S1131210B795F7959F5FC9F7880F911D96958795A8
S113122097F90895E1E0660F771F881FBB1F6217C7
S113123073078407BA0720F0621B730B840BBA0B85
S1131240EE1F88F7E09508950E94C00988F09F5723
S113125098F0B92F9927B751B0F0E1F0660F771FD6
S1131260881F991F1AF0BA95C9F714C0B13091F0CC
S11312700E94DA09B1E008950C94DA09672F782FF7
S11312808827B85F39F0B93FCCF386957795679591
S1131290B395D9F73EF490958095709561957F4FFD
S11312A08F4F9F4F0895E89409C097FB3EF49095A3
S11312B08095709561957F4F8F4F9F4F9923A9F02B
S11312C0F92F96E9BB279395F695879577956795BA
S11312D0B795F111F8CFFAF4BB0F11F460FF1BC0FE
S11312E06F5F7F4F8F4F9F4F16C0882311F096E991
S11312F011C0772321F09EE8872F762F05C066233F
S113130071F096E8862F70E060E02AF09A95660FF7
S1131310771F881FDAF7880F9695879597F90895B0
S113132097F99F6780E870E060E008959FEF80EC94
S1131330089500240A941616170618060906089537
S113134000240A9412161306140605060895092E9D
S11313500394000C11F4882352F0BB0F40F4BF2B0C
S113136011F460FF04C06F5F7F4F8F4F9F4F08954C
S113137057FD9058440F551F59F05F3F71F0479542
S1131380880F97FB991F61F09F3F79F08795089527
S1131390121613061406551FF2CF4695F1DF08C046
S11313A0161617061806991FF1CF86957105610563
S11313B008940895E894BB2766277727CB0197F90B
S11313C008950E94F4090C94A7090E94990938F021
S11313D00E94A00920F0952311F00C9490090C941C
S11313E0960911240C94DB090E94B80970F3959FA7
S11313F0C1F3950F50E0551F629FF001729FBB2708
S1131400F00DB11D639FAA27F00DB11DAA1F649FA3
S11314106627B00DA11D661F829F2227B00DA11D56
S1131420621F739FB00DA11D621F839FA00D611DDC
S1131430221F749F3327A00D611D231F849F600DFD
S1131440211D822F762F6A2F11249F5750409AF026
S1131450F1F088234AF0EE0FFF1FBB1F661F771FB2
S1131460881F91505040A9F79E3F510580F00C947D
S113147090090C94DB095F3FE4F3983ED4F386951E
S113148077956795B795F795E7959F5FC1F7FE2B1D
S1131490880F911D9695879597F90895A1E21A2EC4
S11314A0AA1BBB1BFD010DC0AA1FBB1FEE1FFF1F04
S11314B0A217B307E407F50720F0A21BB30BE40B54
S11314C0F50B661F771F881F991F1A9469F760959B
S11314D07095809590959B01AC01BD01CF01089555
S11314E0AEE0B0E0E6E7FAE00C94310D0D891E8918
S11314F086E08C831A8309838FEF9FE79E838D8315
S1131500AE01475E5F4F6F89788DCE0101960E94D0
S1131510920AEF81F885E00FF11F10822E96E4E025
S11315200C944D0DABE0B0E0E8E9FAE00C94230D27
S11315306C017B018A01FC0117821682838181FF81
S1131540CCC1CE0101963C01F6019381F70193FDD4
S1131550859193FF81917F01882309F4BAC1853273
S113156039F493FD859193FF81917F01853229F4AC
S1131570B60190E00E94890CE7CF912C212C312CEC
S1131580FFE1F315D8F08B3279F038F4803279F03A
S11315908332A1F4232D20611DC08D3261F080338C
S11315A069F4232D216016C0832D8260382EE32D2B
S11315B0E4603E2E2AC0F32DF8601DC037FC2DC018
S11315C020ED280F2A3040F08E32B9F436FC81C168
S11315D0232D2064322E19C036FE06C08AE0989E60
S11315E0200D1124922E11C0EAE02E9E200D11240C
S11315F0222EF32DF0623F2E08C08C3621F4832D69
S11316008068382E02C0883641F4F70193FD859135
S113161093FF81917F018111B3CF982F9F7D9554C2
S1131620933028F40C5F1F4F9FE399830DC08336DA
S113163031F0833771F0833509F059C021C0F801C6
S1131640808189830E5F1F4F88248394912C5301DA
S113165013C02801F2E04F0E511CF801A080B180A4
S113166036FE03C0692D70E002C06FEF7FEFC50145
S11316700E947E0C4C018201F32DFF773F2E16C091
S1131680280122E0420E511CF801A080B18036FEF0
S113169003C0692D70E002C06FEF7FEFC5010E94A7
S11316A0730C4C01F32DF0683F2E820133FC1BC0F8
S11316B0822D90E088169906B0F4B60180E290E09D
S11316C00E94890C2A94F4CFF50137FC859137FEEA
S11316D081915F01B60190E00E94890C21102A9447
S11316E021E0821A91088114910471F7E8C08436CC
S11316F011F0893641F5F80137FE07C06081718128
S1131700828193810C5F1F4F08C060817181072E15
S1131710000C880B990B0E5F1F4FF32DFF763F2EA5
S113172097FF09C090958095709561957F4F8F4F75
S11317309F4FF0683F2E2AE030E0A3010E94C50CC1
S1131740882E861845C0853731F4232D2F7EB22E7E
S11317502AE030E025C0932D997FB92E8F36C1F051
S113176018F4883579F0B5C0803719F0883721F03E
S1131770B0C0E92FE061BE2EB4FE0DC0FB2DF460B5
S1131780BF2E09C034FE0AC0292F2660B22E06C01F
S113179028E030E005C020E130E002C020E132E082
S11317A0F801B7FE07C060817181828193810C5F6B
S11317B01F4F06C06081718180E090E00E5F1F4F73
S11317C0A3010E94C50C882E8618FB2DFF773F2E9F
S11317D036FE0DC0232D2E7FA22E891458F434FE1C
S11317E00BC032FC09C0832D8E7EA82E05C0B82CF8
S11317F0A32C03C0B82C01C0B92CA4FE0FC0FE0159
S1131800E80DF11D8081803321F49A2D997EA92E53
S113181009C0A2FE06C0B394B39404C08A2D86788E
S113182009F0B394A3FC11C0A0FE06C0B21488F45E
S1131830280C922C9B180EC0B21460F4B60180E2FE
S113184090E00E94890CB394F7CFB21418F42B18CB
S113185002C0982C212CA4FE10C0B60180E390E0B5
S11318600E94890CA2FE17C0A1FC03C088E790E087
S113187002C088E590E0B6010CC08A2D867859F044
S1131880A1FE02C08BE201C080E2A7FC8DE2B6019A
S113189090E00E94890C891438F4B60180E390E04A
S11318A00E94890C9A94F7CF8A94F301E80DF11DF4
S11318B08081B60190E00E94890C8110F5CF22202E
S11318C009F442CEB60180E290E00E94890C2A9489
S11318D0F6CFF6018681978102C08FEF9FEF2B969A
S11318E0E2E10C943F0DFC01059061507040011041
S11318F0D8F7809590958E0F9F1F0895FC01615035
S1131900704001900110D8F7809590958E0F9F1F1D
S113191008950F931F93CF93DF93FB01238121FD40
S113192003C08FEF9FEF2CC022FF16C04681578162
S1131930248135814217530744F4A081B1819D016C
S11319402F5F3F4F318320838C93268137812F5F14
S11319503F4F3783268314C08B01EC01FB010084C5
S1131960F185E02D0995892BE1F6D80116968D9124
S11319709C911797019617969C938E931697CE0178
S1131980DF91CF911F910F910895FA01AA27283072
S113199051F1203181F1E8946F936E7F6E5F7F4F38
S11319A08F4F9F4FAF4FB1E03ED0B4E03CD0670FB4
S11319B0781F891F9A1FA11D680F791F8A1F911D07
S11319C0A11D6A0F711D811D911DA11D20D009F457
S11319D068943F912AE0269F11243019305D319399
S11319E0DEF6CF010895462F4770405D4193B3E082
S11319F00FD0C9F7F6CF462F4F70405D4A3318F029
S1131A00495D31FD4052419302D0A9F7EACFB4E0D9
S1131A10A6959795879577956795BA95C9F7009791
S1131A206105710508959B01AC010A2E0694579532
S1131A30479537952795BA95C9F7620F731F841F89
S1131A40951FA01D08952F923F924F925F926F921F
S1131A507F928F929F92AF92BF92CF92DF92EF923A
S1131A60FF920F931F93CF93DF93CDB7DEB7CA1BBB
S1131A70DB0B0FB6F894DEBF0FBECDBF09942A88E6
S1131A80398848885F846E847D848C849B84AA848E
S1131A90B984C884DF80EE80FD800C811B81AA811B
S1131AA0B981CE0FD11D0FB6F894DEBF0FBECDBFE6
S10B1AB0ED010895F894FFCF45
S1131AB8FF0F0153696E65000000000053717561E2
S1131AC87265000000547269616E676C65003000CD
S1131AD86000C000800100030006416D706C6974E9
S1131AE8756465004672657175656E637900576142
S1131AF87665666F726D002564003C00487A0020A4
S1131B0820202000557020202020446F776E20204C
S1131B18202053656C656374003E005570202020B6
S1131B2820446F776E2020202020204261636B00C0
S1131B3800002000400061008100A100C100E20013
S1131B4802012201420163018301A301C301E401EB
S1131B5804022402440265028502A502C502E602C3
S1131B6806032603460367038703A703C703E8039B
S1131B7808042804480469048904A904C904EA0473
S1131B880A052A054A056A058B05AB05CB05EB054D
S1131B980C062C064C066C068D06AD06CD06ED0625
S1131BA80E072E074E076E078F07AF07CF07EF07FD
S1131BB810083008500870089108B108D108F108D5
S1131BC812093209520972099309B309D309F309AD
S1131BD8140A340A540A740A950AB50AD50AF50A85
S1131BE8150B360B560B760B960BB70BD70BF70B5F
S1131BF8170C380C580C780C980CB90CD90CF90C37
S1131C08190D3A0D5A0D7A0D9A0DBB0DDB0DFB0D0E
S1131C181B0E3C0E5C0E7C0E9C0EBD0EDD0EFD0EE6
S1131C281D0F3E0F5E0F7E0F9E0FBF0FDF0FFF0FBE
S1131C38DF0FBF0F9F0F7F0F5F0F3F0F1F0FFF0EA9
S1131C48DF0EBF0E9F0E7F0E5F0E3F0E1F0EFF0DA1
S1131C58DF0DBF0D9F0D7F0D5F0D3F0D1F0DFF0C99
S1131C68DF0CBF0C9F0C7F0C5F0C3F0C1F0CFF0B91
S1131C78DF0BBF0B9F0B7F0B5F0B3F0B1F0BFF0A89
S1131C88DF0ABF0A9F0A7F0A5F0A3F0A1F0AFF0981
S1131C98DF09BF099F097F095F093F091F09FF0879
S1131CA8DF08BF089F087F085F083F081F0800086F
S1131CB8E007C007A0078007600740072007000760
S1131CC8E006C006A0068006600640062006000658
S1131CD8E005C005A0058005600540052005000550
S1131CE8E004C004A0048004600440042004000448
S1131CF8E003C003A0038003600340032003000340
S1131D08E002C002A0028002600240022002000237
S1131D18E001C001A001800160014001200100012F
S1131D28E000C000A0008000600040002000000027
S1131D38FF07310863089608C808FA082B095D09E3
S1131D488E09C009F009210A510A810AB10AE00A78
S1131D580E0B3D0B6A0B970BC40BF00B1B0C460CBC
S1131D68700C9A0CC20CEA0C120D380D5E0D820D23
S1131D78A60DCA0DEC0D0D0E2D0E4D0E6B0E890E13
S1131D88A50EC00EDB0EF40E0C0F230F390F4E0FE9
S1131D98620F750F860F970FA60FB40FC10FCC0FE4
S1131DA8D70FE00FE80FEF0FF40FF80FFC0FFD0F3C
S1131DB8FE0FFD0FFC0FF80FF40FEF0FE80FE00F05
S1131DC8D70FCC0FC10FB40FA60F970F860F750F3F
S1131DD8620F4E0F390F230F0C0FF40EDB0EC00EDB
S1131DE8A50E890E6B0E4D0E2D0E0D0EEC0DCA0DA3
S1131DF8A60D820D5E0D380D120DEA0CC20C9A0C5C
S1131E08700C460C1B0CF00BC40B970B6A0B3D0BA8
S1131E180E0BE00AB10A810A510A210AF009C00925
S1131E288E095D092B09FA08C80896086308310861
S1131E38FF07CD079B07680736070407D306A106E3
S1131E4870063E060E06DD05AD057D054D051E052D
S1131E58F004C104940467043A040E04E303B803C9
S1131E688E0364033C031403EC02C602A0027C0242
S1131E78580234021202F101D101B1019301750132
S1131E8859013E0123010A01F200DB00C500B0003C
S1131E989C0089007800670058004A003D00320021
S1131EA827001E0016000F000A00060002000100A9
S1131EB800000100020006000A000F0016001E00C0
S1131EC8270032003D004A00580067007800890066
S1131ED89C00B000C500DB00F2000A0123013E01AA
S1131EE8590175019301B101D101F10112023402C2
S1131EF858027C02A002C602EC0214033C036403E9
S1131F088E03B803E3030E043A0467049404C1047B
S1131F18F0041E054D057D05AD05DD050E063E06DE
S1131F287006A106D3060407360768079B07CD0782
S9030000FC
