S01700004763634170706C69636174696F6E372E7372656355
S11300000C945A000C9464000C9464000C946400E6
S11300100C9464000C9464000C9464000C946400CC
S11300200C9464000C9464000C9464000C946400BC
S11300300C9464000C9464000C9464000C946400AC
S11300400C9464000C9464000C9464000C9464009C
S11300500C9464000C9464000C9464000C9464008C
S11300600C9464000C9464000C9464000C9464007C
S11300700C9464000C9464000C9464000C9464006C
S11300800C9464000C9464000C9464000C9464005C
S11300900C9464000C9464000C9464000C9464004C
S11300A00C9464000C9464000C9464000C9464003C
S11300B00C94640011241FBECFEFD8E0DEBFCDBF87
S11300C00E9484000C949B000C94000080E48093B4
S11300D07C0087E880937A000895EAE7F0E0808165
S11300E08064808380917A0086FDFCCF80917800C3
S11300F09091790008950E946D0021E0853F914020
S113010008F420E0822F08950E94660084B1846080
S113011084B90E947B00882321F085B1846085B96D
S113012003C085B18B7F85B987EA91E60197F1F722
S10D013000C00000EECFF894FFCFEA
S9030000FC
