S01F000054696D6572496E7465727275707457617665666F726D732E737265637D
S11300000C945A000C946C000C946C000C946C00CE
S11300100C946C000C946C000C946C000C946C00AC
S11300200C946C000C946C000C946C000C949F0069
S11300300C946C000C946C000C946C000C946C008C
S11300400C946C000C946C000C946C000C946C007C
S11300500C946C000C946C000C946C000C946C006C
S11300600C946C000C946C000C946C000C946C005C
S11300700C946C000C946C000C946C000C946C004C
S11300800C946C000C946C000C946C000C946C003C
S11300900C946C000C946C000C946C000C946C002C
S11300A00C946C000C946C000C946C000C946C001C
S11300B00C946C0011241FBECFEFD8E0DEBFCDBF7F
S11300C021E0A0E0B1E001C01D92A230B207E1F747
S11300D00E94E0000C94F7000C9400001092D900E8
S11300E08CE08093D800089584EA8093DC008091AA
S11300F0DC008823E4F7089584E98093DC00089504
S11301008093DB0084E88093DC008091DC0088230A
S1130110E4F70895CF93DF93C82FD92F0E9474007A
S113012084EC0E9480008D2F8F700E9480008C2FA1
S11301300E9480000E947C00DF91CF9108951F925D
S11301400F920FB60F9211242F933F934F935F9307
S11301506F937F938F939F93AF93BF93EF93FF938B
S11301608091000190910101892B59F48FEF9FE058
S11301700E948A0081E090E0909301018093000145
S11301800EC08091000190910101019741F480E03B
S113019090E00E948A001092010110920001FF91E8
S11301A0EF91BF91AF919F918F917F916F915F91EB
S11301B04F913F912F910F900FBE0F901F90189564
S11301C00E946E00E1E8F0E080818860808387E32C
S11301D091E09093890080938800AFE6B0E08C9121
S11301E082608C938081846080837894FFCFF894BC
S10501F0FFCF3B
S9030000FC
