S019000053656E696F725F44657369676E5F4C43442E73726563B0
S11300000C945A000C9477000C9477000C947700AD
S11300100C9477000C94FC050C9477000C947700F6
S11300200C9477000C9477000C9477000C94770070
S11300300C9477000C9477000C9477000C94770060
S11300400C9477000C9477000C9477000C94770050
S11300500C9477000C9477000C9477000C94770040
S11300600C9477000C9477000C9477000C94770030
S11300700C9477000C9477000C9477000C94770020
S11300800C9477000C9477000C9477000C94770010
S11300900C9477000C9477000C9477000C94770000
S11300A00C9477000C9477000C9477000C947700F0
S11300B00C94770011241FBECFEFD8E0DEBFCDBF74
S11300C011E0A0E0B1E0E4E9F2E102C005900D9294
S11300D0A438B107D9F721E0A4E8B1E001C01D922A
S11300E0A738B207E1F70E941D020C9448090C944A
S11300F000009B01AC011092B90060E074E284EF4F
S113010090E00E943C06DA01C9014097A109B109B7
S1130110B695A795979587958093B8000895ECEBCD
S1130120F0E0108294EA90839091BC009923E4F764
S11301309091B900987F983011F09031B1F490E02B
S1130140880F991F862B8093BB0084E88093BC00A2
S11301508091BC008823E4F78091B900887F8831BE
S113016031F0803431F480E008958AE0089580E02D
S1130170089584E108958093BB0084E88093BC00D3
S11301808091BC008823E4F78091B900887F88328D
S113019011F085E1089580E0089584E98093BC001E
S11301A00895CF93C62F60E00E948F00811108C08C
S11301B08C2F0E94BB00811103C00E94CD0080E0FF
S11301C0CF910895FC012381622B80810E94D1008C
S11301D008950F931F93CF938C01C62F64600E94E0
S11301E0E2008AE08A95F1F700C06C2F6B7FC801AA
S11301F00E94E20087EC90E00197F1F700C0000054
S1130200CF911F910F9108951F93CF93DF93EC012A
S1130210162F0E94E200612FCE010E94E900DF91B7
S1130220CF911F910895FF920F931F93CF93DF9364
S11302308C01F42E862F807F90E1699FE0011124C8
S1130240682F642BC8010E9404016C2F6F29C80118
S11302500E940401DF91CF911F910F91FF900895A7
S11302600F931F93CF93DF938C01EB01688106C03A
S113027041E0C8010E941301219668816111F8CF01
S1130280DF91CF911F910F91089540E00E941301D7
S11302900895CF93DF9300D000D0CDB7DEB7198295
S11302A020E42A8324E12B8324E52C83E1E0F0E09D
S11302B0EC0FFD1FE60FF11D6081640F60680E9462
S11302C045010F900F900F900F90DF91CF910895FB
S11302D0CF93DF93EC0161E00E9445018FE39FE13E
S11302E00197F1F700C0000040E060E0CE010E94F9
S11302F04901DF91CF91089562E00E9445018FE3A7
S11303009FE10197F1F700C000000895FC016581A9
S1130310262F246025836C600E9445010895CF93A5
S1130320DF93CDB7DEB72E970FB6F894DEBF0FBEBE
S1130330CDBF888769874A871B862C8784E08D8791
S113034082E08E87423018F0822F88608C872223C7
S113035029F0413019F48C8584608C872FEF81EE6D
S113036094E0215080409040E1F700C0000060E03C
S1130370CE0108960E94E2002FEF83ED90E3215016
S113038080409040E1F700C0000060E3CE01089691
S11303900E94E2008FE496E40197F1F700C00000A8
S11303A060E3CE0108960E9404018FE496E401976D
S11303B0F1F700C0000060E3CE0108960E9404013A
S11303C087E592E00197F1F700C0000060E2CE01FA
S11303D008960E9404016C856062CE0108960E9412
S11303E04501CE0108960E948601CE0108960E941E
S11303F068016E856460CE0108960E944501CE01B5
S113040008960E947C0187E0FE013896DE01119671
S113041001900D928A95E1F729813A814B815C81A3
S11304206D817E818F8190E02E960FB6F894DEBFA9
S11304300FBECDBFDF91CF910895CF93DF93CDB79A
S1130440DEB7EF970FB6F894DEBF0FBECDBF8AB10B
S113045084708AB98AB180718AB98AB180788AB97C
S11304608BE1E0E0F1E0DE011A9601900D928A95AD
S1130470E1F784E1EBE1F1E0DE01959601900D9264
S11304808A95E1F760EA76E881E090E00E947900DD
S113049020E044E064E187E20E948F0129AF3AAF93
S11304A04BAF5CAF6DAF7EAF8FAF40E060E0CE018D
S11304B0C9960E9449016FE271E0CE01C9960E947B
S11304C0300140E061E0CE01C9960E94490169E330
S11304D071E0CE01C9960E94300140E062E0CE0195
S11304E0C9960E94490163E471E0CE01C9960E9455
S11304F03001E8E6F0E0808184608083EDE6F0E09E
S113050080818469808378944EE061E0CE01C9964D
S11305100E94490164E571E0CE01C9960E94300150
S11305208EA18F938DA18F938CE491E09F938F93F1
S11305308E010B5F1F4F1F930F930E945E06B8013D
S1130540CE01C9960E94300142E161E0CE01C99614
S11305500E9449016FE471E0CE01C9960E94300106
S11305604CE062E0CE01C9960E94490162E571E067
S1130570CE01C9960E943001BE01665F7F4FCE0155
S1130580C9960E9430010F900F900F900F900F901A
S11305900F90F12C00E010E00F2EF2E3EF2EF02D7F
S11305A080918601882309F4F7C0123009F45BC0F6
S11305B028F4112361F0113081F1ECC0143009F4F6
S11305C09EC008F476C0153009F4BFC0E3C040E112
S11305D060E0CE01C9960E94490167E571E0CE0151
S11305E0C9960E94300149E060E0CE01C9960E949C
S11305F0490165E571E0CE01C9960E94300140E0F1
S113060063E0CE01C9960E94490169E571E0CE011B
S1130610C9960E94300113E0BDC04CE061E0CE01F8
S1130620C9960E94490167E571E0CE01C9960E940E
S1130630300149E061E0CE01C9960E94490165E5B7
S113064071E0CE01C9960E94300140E063E0CE0122
S1130650C9960E94490169E571E0CE01C9960E94DC
S1130660300114E097C04BE062E0CE01C9960E94CD
S1130670490167E571E0CE01C9960E94300148E066
S113068062E0CE01C9960E94490165E571E0CE01A0
S1130690C9960E94300140E063E0CE01C9960E94F1
S11306A0490169E571E0CE01C9960E94300115E067
S11306B071C049E060E0CE01C9960E9449016CE630
S11306C071E0CE01C9960E94300140E160E0CE01A4
S11306D0C9960E94490165E571E0CE01C9960E9460
S11306E0300140E063E0CE01C9960E9449016EE604
S11306F071E0CE01C9960E94300110E04BC049E080
S113070061E0CE01C9960E9449016CE671E0CE0118
S1130710C9960E9430014CE061E0CE01C9960E9466
S1130720490165E571E0CE01C9960E94300140E0BF
S113073063E0CE01C9960E9449016EE671E0CE01E4
S1130740C9960E94300111E025C048E062E0CE0164
S1130750C9960E9449016CE671E0CE01C9960E94D7
S113076030014BE062E0CE01C9960E94490165E583
S113077071E0CE01C9960E94300140E063E0CE01F1
S1130780C9960E9449016EE671E0CE01C9960E94A5
S1130790300112E01092860180918501882309F4CA
S11307A012C1123009F443C028F4112361F011304E
S11307B021F107C1143009F48CC008F452C015307B
S11307C009F4CDC0FEC049E060E0CE01C9960E94A4
S11307D0490165E571E0CE01C9960E94300148E007
S11307E062E0CE01C9960E9449016CE671E0CE0137
S11307F0C9960E94300112E0E4C049E060E0CE01F5
S1130800C9960E9449016CE671E0CE01C9960E9426
S1130810300149E061E0CE01C9960E94490165E5D5
S113082071E0CE01C9960E94300110E0CAC049E0CF
S113083061E0CE01C9960E9449016CE671E0CE01E7
S1130840C9960E94300148E062E0CE01C9960E9438
S1130850490165E571E0CE01C9960E94300111E0BD
S1130860B0C083E68E1508F4ACC0E39441E160E0C7
S1130870CE01C9960E9449011F92EF928CE491E047
S11308809F938F93CE0101966C019F938F930E9447
S11308905E06B601CE01C9960E9430010F900F90FA
S11308A00F900F900F900F9099E09E1538F064E52B
S11308B071E0CE01C9960E94300183C083E68E1593
S11308C008F47FC065E571E0CE01C9960E9430014D
S11308D078C099E0F91611F0F39401C0F12C4EE0C0
S11308E061E0CE01C9960E94490181E08F1520F490
S11308F096E09F1570F007C064E571E0CE01C996DB
S11309000E94300106C065E571E0CE01C9960E94DF
S11309103001EF2DF0E0EE0FFF1F81E090E08C0F2F
S11309209D1FE80FF91F85A18F9384A18F938CE4F9
S113093091E09F938F936E0195E0C90ED11CDF92D5
S1130940CF920E945E06B601CE01C9960E94300184
S11309500F900F900F900F900F900F9032C00230B5
S113096011F00F5F01C000E04CE062E0CE01C996D7
S11309700E944901002319F0013041F00DC062E5E5
S113098071E0CE01C9960E94300106C064E571E0B1
S1130990CE01C9960E943001802F90E0BC01660F01
S11309A0771F660F771F660F771F680F791F8AE01E
S11309B090E08C0F9D1F680F791FCE01C9960E948D
S11309C030011092850180918401882309F4E8CDD7
S11309D0123009F443C028F4112361F0113021F1DD
S11309E008C1143009F48BC008F452C0153009F45E
S11309F0CEC0FFC049E060E0CE01C9960E94490123
S1130A0065E571E0CE01C9960E94300149E061E0DC
S1130A10CE01C9960E9449016CE671E0CE01C996E7
S1130A200E94300111E0E5C049E061E0CE01C996C1
S1130A300E94490165E571E0CE01C9960E9430012A
S1130A4048E062E0CE01C9960E9449016CE671E07B
S1130A50CE01C9960E94300112E0CBC049E060E0AB
S1130A60CE01C9960E9449016CE671E0CE01C99697
S1130A700E94300148E062E0CE01C9960E9449011B
S1130A8065E571E0CE01C9960E94300110E0B1C065
S1130A90EE2009F4AEC0EA9441E160E0CE01C996CB
S1130AA00E9449011F92EF928CE491E09F938F93EF
S1130AB0CE0101966C019F938F930E945E06B6014E
S1130AC0CE01C9960E9430010F900F900F900F90A5
S1130AD00F900F9099E09E1538F064E571E0CE0117
S1130AE0C9960E94300185C083E68E1508F481C042
S1130AF065E571E0CE01C9960E9430017AC0FF20FD
S1130B0011F0FA9404C00F2EF9E0FF2EF02D4EE000
S1130B1061E0CE01C9960E94490191E09F1520F43D
S1130B2086E08F1570F007C064E571E0CE01C996C8
S1130B300E94300106C065E571E0CE01C9960E94AD
S1130B403001EF2DF0E0EE0FFF1F81E090E08C0FFD
S1130B509D1FE80FF91F85A18F9384A18F938CE4C7
S1130B6091E09F938F936E0195E0C90ED11CDF92A3
S1130B70CF920E945E06B601CE01C9960E94300152
S1130B800F900F900F900F900F900F9032C0002392
S1130B9011F0015001C002E04CE062E0CE01C996C0
S1130BA00E944901002319F0013041F00DC062E5B3
S1130BB071E0CE01C9960E94300106C064E571E07F
S1130BC0CE01C9960E943001802F90E0BC01660FCF
S1130BD0771F660F771F660F771F680F791F8AE0EC
S1130BE090E08C0F9D1F680F791FCE01C9960E945B
S1130BF0300110928401D4CC1F920F920FB60F9241
S1130C0011242F938F939F934A9B0EC02FEF80E75D
S1130C1092E0215080409040E1F700C000004A99E2
S1130C20FECF81E0809386014C9B0EC02FEF80E7BE
S1130C3092E0215080409040E1F700C000004C99C0
S1130C40FECF81E0809385014F9B0EC02FEF80E79C
S1130C5092E0215080409040E1F700C000004F999D
S1130C60FECF81E0809384019F918F912F910F900B
S1130C700FBE0F901F901895A1E21A2EAA1BBB1B42
S1130C80FD010DC0AA1FBB1FEE1FFF1FA217B30754
S1130C90E407F50720F0A21BB30BE40BF50B661F6A
S1130CA0771F881F991F1A9469F76095709580952E
S1130CB090959B01AC01BD01CF010895AEE0B0E079
S1130CC0E4E6F6E00C941F090D891E8986E08C8306
S1130CD01A8309838FEF9FE79E838D83AE01475E5E
S1130CE05F4F6F89788DCE0101960E948006EF8157
S1130CF0F885E00FF11F10822E96E4E00C943B0976
S1130D00ABE0B0E0E6E8F6E00C9411096C017B017D
S1130D108A01FC0117821682838181FFCCC1CE0136
S1130D2001963C01F6019381F70193FD859193FFB0
S1130D3081917F01882309F4BAC1853239F493FD86
S1130D40859193FF81917F01853229F4B60190E06A
S1130D500E947708E7CF912C212C312CFFE1F31569
S1130D60D8F08B3279F038F4803279F08332A1F400
S1130D70232D20611DC08D3261F0803369F4232D51
S1130D80216016C0832D8260382EE32DE4603E2E50
S1130D902AC0F32DF8601DC037FC2DC020ED280FAC
S1130DA02A3040F08E32B9F436FC81C1232D206400
S1130DB0322E19C036FE06C08AE0989E200D1124FA
S1130DC0922E11C0EAE02E9E200D1124222EF32D26
S1130DD0F0623F2E08C08C3621F4832D8068382EB3
S1130DE002C0883641F4F70193FD859193FF819108
S1130DF07F018111B3CF982F9F7D9554933028F4B0
S1130E000C5F1F4F9FE399830DC0833631F0833706
S1130E1071F0833509F059C021C0F80180818983BC
S1130E200E5F1F4F88248394912C530113C0280113
S1130E30F2E04F0E511CF801A080B18036FE03C0D1
S1130E40692D70E002C06FEF7FEFC5010E946C084E
S1130E504C018201F32DFF773F2E16C0280122E0BA
S1130E60420E511CF801A080B18036FE03C0692DEA
S1130E7070E002C06FEF7FEFC5010E9461084C0172
S1130E80F32DF0683F2E820133FC1BC0822D90E0CD
S1130E9088169906B0F4B60180E290E00E947708C3
S1130EA02A94F4CFF50137FC859137FE81915F01D7
S1130EB0B60190E00E94770821102A9421E0821A5A
S1130EC091088114910471F7E8C0843611F08936D1
S1130ED041F5F80137FE07C06081718182819381F9
S1130EE00C5F1F4F08C060817181072E000C880BB6
S1130EF0990B0E5F1F4FF32DFF763F2E97FF09C00E
S1130F0090958095709561957F4F8F4F9F4FF068B6
S1130F103F2E2AE030E0A3010E94B308882E8618F1
S1130F2045C0853731F4232D2F7EB22E2AE030E0E0
S1130F3025C0932D997FB92E8F36C1F018F48835CA
S1130F4079F0B5C0803719F0883721F0B0C0E92FA7
S1130F50E061BE2EB4FE0DC0FB2DF460BF2E09C0AF
S1130F6034FE0AC0292F2660B22E06C028E030E0E5
S1130F7005C020E130E002C020E132E0F801B7FE14
S1130F8007C060817181828193810C5F1F4F06C00D
S1130F906081718180E090E00E5F1F4FA3010E9489
S1130FA0B308882E8618FB2DFF773F2E36FE0DC022
S1130FB0232D2E7FA22E891458F434FE0BC032FC4C
S1130FC009C0832D8E7EA82E05C0B82CA32C03C087
S1130FD0B82C01C0B92CA4FE0FC0FE01E80DF11D10
S1130FE08081803321F49A2D997EA92E09C0A2FE16
S1130FF006C0B394B39404C08A2D867809F0B394E0
S1131000A3FC11C0A0FE06C0B21488F4280C922CD4
S11310109B180EC0B21460F4B60180E290E00E9406
S11310207708B394F7CFB21418F42B1802C0982C95
S1131030212CA4FE10C0B60180E390E00E94770842
S1131040A2FE17C0A1FC03C088E790E002C088E5B7
S113105090E0B6010CC08A2D867859F0A1FE02C03A
S11310608BE201C080E2A7FC8DE2B60190E00E9411
S11310707708891438F4B60180E390E00E94770879
S11310809A94F7CF8A94F301E80DF11D8081B6019B
S113109090E00E9477088110F5CF222009F442CE17
S11310A0B60180E290E00E9477082A94F6CFF60118
S11310B08681978102C08FEF9FEF2B96E2E10C941B
S11310C02D09FC010590615070400110D8F78095FE
S11310D090958E0F9F1F0895FC0161507040019000
S11310E00110D8F7809590958E0F9F1F08950F9348
S11310F01F93CF93DF93FB01238121FD03C08FEF67
S11311009FEF2CC022FF16C0468157812481358170
S11311104217530744F4A081B1819D012F5F3F4FD3
S1131120318320838C93268137812F5F3F4F378310
S1131130268314C08B01EC01FB010084F185E02DB2
S11311400995892BE1F6D80116968D919C911797F4
S1131150019617969C938E931697CE01DF91CF91AB
S11311601F910F910895FA01AA27283051F12031D7
S113117081F1E8946F936E7F6E5F7F4F8F4F9F4F27
S1131180AF4FB1E03ED0B4E03CD0670F781F891F69
S11311909A1FA11D680F791F8A1F911DA11D6A0F37
S11311A0711D811D911DA11D20D009F468943F91EA
S11311B02AE0269F11243019305D3193DEF6CF01E9
S11311C00895462F4770405D4193B3E00FD0C9F7AF
S11311D0F6CF462F4F70405D4A3318F0495D31FD1C
S11311E04052419302D0A9F7EACFB4E0A69597956F
S11311F0879577956795BA95C9F700976105710545
S113120008959B01AC010A2E06945795479537958E
S11312102795BA95C9F7620F731F841F951FA01DE8
S113122008952F923F924F925F926F927F928F9286
S11312309F92AF92BF92CF92DF92EF92FF920F9361
S11312401F93CF93DF93CDB7DEB7CA1BDB0B0FB66B
S1131250F894DEBF0FBECDBF09942A883988488828
S11312605F846E847D848C849B84AA84B984C884BE
S1131270DF80EE80FD800C811B81AA81B981CE0FB5
S1131280D11D0FB6F894DEBF0FBECDBFED0108959A
S1071290F894FFCFFC
S113129453696E6500000000005371756172650046
S11312A40000547269616E676C6500140032006456
S11312B400C8002C01F401BC02E803B004DC0541BD
S11312C46D706C6974756465004672657175656EDC
S11312D463790057617665666F726D002564004812
S11312E47A0020202020003E005570202020204435
S11312F46F776E202020204261636B003C005570A0
S113130420202020446F776E2020202053656C65B4
S107131463740000FA
S9030000FC
