S015000050524F474D454D5F775F4C43442E73726563F0
S11300000C945A000C946F000C946F000C946F00C5
S11300100C946F000C946F000C946F000C946F00A0
S11300200C946F000C946F000C946F000C946F0090
S11300300C946F000C946F000C946F000C946F0080
S11300400C946F000C946F000C946F000C946F0070
S11300500C946F000C946F000C946F000C946F0060
S11300600C946F000C946F000C946F000C946F0050
S11300700C946F000C946F000C946F000C946F0040
S11300800C946F000C946F000C946F000C946F0030
S11300900C946F000C946F000C946F000C946F0020
S11300A00C946F000C946F000C946F000C946F0010
S11300B00C946F0011241FBECFEFD8E0DEBFCDBF7C
S11300C011E0A0E0B1E0ECE0F5E002C005900D9293
S11300D0AC30B107D9F70E941C020C9484020C9432
S11300E000009B01AC011092B90060E074E284EF5F
S11300F090E00E945B02DA01C9014097A109B109AD
S1130100B695A795979587958093B8000895ECEBDD
S1130110F0E0108294EA90839091BC009923E4F774
S11301209091B900987F983011F09031B1F490E03B
S1130130880F991F862B8093BB0084E88093BC00B2
S11301408091BC008823E4F78091B900887F8831CE
S113015031F0803431F480E008958AE0089580E03D
S1130160089584E108958093BB0084E88093BC00E3
S11301708091BC008823E4F78091B900887F88329D
S113018011F085E1089580E0089584E98093BC002E
S11301900895CF93C62F60E00E948700811108C0A4
S11301A08C2F0E94B300811103C00E94C50080E01F
S11301B0CF910895FC012381622B80810E94C900A4
S11301C0089528E0FC01238360E00E94DA0008958A
S11301D00F931F93CF938C01C62F64600E94DA00A3
S11301E08AE08A95F1F700C06C2F6B7FC8010E94EA
S11301F0DA0087EC90E00197F1F700C00000CF919E
S11302001F910F9108951F93CF93DF93EC01162F45
S11302100E94DA00612FCE010E94E800DF91CF91A5
S11302201F910895FF920F931F93CF93DF938C0137
S1130230F42E862F807F90E1699FE0011124682FBE
S1130240642BC8010E9403016C2F6F29C8010E940E
S11302500301DF91CF911F910F91FF9008950F93A8
S11302601F93CF93DF938C01EB01688106C041E0BB
S1130270C8010E941201219668816111F8CFDF91B3
S1130280CF911F910F91089540E00E9412010895AB
S1130290CF93DF9300D000D0CDB7DEB7198220E42E
S11302A02A8324E12B8324E52C83E1E0F0E0EC0FA6
S11302B0FD1FE60FF11D6081640F60680E94440118
S11302C00F900F900F900F90DF91CF910895CF93DF
S11302D0DF93EC0161E00E9444018FE39FE1019709
S11302E0F1F700C0000040E060E0CE010E94480148
S11302F0DF91CF91089562E00E9444018FE39FE172
S11303000197F1F700C000000895FC016581262FD4
S1130310246025836C600E9444010895CF93DF9389
S1130320CDB7DEB72E970FB6F894DEBF0FBECDBFA4
S1130330888769874A871B862C8784E08D8782E0BB
S11303408E87423018F0822F88608C87222329F010
S1130350413019F48C8584608C872FEF81EE94E012
S1130360215080409040E1F700C0000060E0CE01E1
S113037008960E94DA002FEF83ED90E3215080402D
S11303809040E1F700C0000060E3CE0108960E94AF
S1130390DA008FE496E40197F1F700C0000060E30F
S11303A0CE0108960E9403018FE496E40197F1F7C9
S11303B000C0000060E3CE0108960E94030187E5B7
S11303C092E00197F1F700C0000060E2CE010896C8
S11303D00E9403016C856062CE0108960E9444016C
S11303E0CE0108960E948501CE0108960E946701FD
S11303F06E856460CE0108960E944401CE01089681
S11304000E947B0187E0FE013896DE01119601907F
S11304100D928A95E1F729813A814B815C816D8146
S11304207E818F8190E02E960FB6F894DEBF0FBECA
S1130430CDBFDF91CF910895CF93DF93CDB7DEB7D2
S11304406E970FB6F894DEBF0FBECDBF60EA76E8B4
S113045081E090E00E94710020E044E064E187E2E2
S11304600E948E0129833A834B835C836D837E8350
S11304708F8340E061E0CE0101960E944801CE01E5
S113048001960E94E1008CE0E0E0F1E0DE011896C4
S113049001900D928A95E1F7BE01685F7F4FCE010E
S11304A044960E947D02BE016C5E7F4FCE01019690
S11304B00E942F01FFCFA1E21A2EAA1BBB1BFD0134
S11304C00DC0AA1FBB1FEE1FFF1FA217B307E4072F
S11304D0F50720F0A21BB30BE40BF50B661F771F87
S11304E0881F991F1A9469F7609570958095909567
S11304F09B01AC01BD01CF010895FB01DC01059016
S10F05000D920020E1F70895F894FFCF5D
S10F050C48656C6C6F20576F726C6400C3
S9030000FC
