:100000000C945A000C9477000C9477000C947700B1
:100010000C9477000C9424020C9477000C947700D5
:100020000C9477000C9477000C9477000C94770074
:100030000C9477000C9477000C9477000C94770064
:100040000C9477000C9477000C9477000C94770054
:100050000C9477000C9477000C9477000C94770044
:100060000C9477000C9477000C9477000C94770034
:100070000C9477000C9477000C9477000C94770024
:100080000C9477000C9477000C9477000C94770014
:100090000C9477000C9477000C9477000C94770004
:1000A0000C9477000C9477000C9477000C947700F4
:1000B0000C94770011241FBECFEFD8E0DEBFCDBF78
:1000C00011E0A0E0B1E0E6EAFBE002C005900D928D
:1000D000A430B107D9F721E0A4E0B1E001C01D923E
:1000E000A530B207E1F70E9462020C94D1050C948E
:1000F00000009B01AC011092B90060E074E284EF53
:1001000090E00E94C502DA01C9014097A109B10936
:10011000B695A795979587958093B8000895ECEBD1
:10012000F0E0108294EA90839091BC009923E4F768
:100130009091B900987F983011F09031B1F490E02F
:10014000880F991F862B8093BB0084E88093BC00A6
:100150008091BC008823E4F78091B900887F8831C2
:1001600031F0803431F480E008958AE0089580E031
:10017000089584E108958093BB0084E88093BC00D7
:100180008091BC008823E4F78091B900887F883291
:1001900011F085E1089580E0089584E98093BC0022
:1001A0000895CF93C62F60E00E948F00811108C090
:1001B0008C2F0E94BB00811103C00E94CD0080E003
:1001C000CF910895FC012381622B80810E94D10090
:1001D000089528E0FC01238360E00E94E200089576
:1001E0000F931F93CF938C01C62F64600E94E2008F
:1001F0008AE08A95F1F700C06C2F6B7FC8010E94DE
:10020000E20087EC90E00197F1F700C00000CF9189
:100210001F910F9108951F93CF93DF93EC01162F39
:100220000E94E200612FCE010E94F000DF91CF9189
:100230001F910895FF920F931F93CF93DF938C012B
:10024000F42E862F807F90E1699FE0011124682FB2
:10025000642BC8010E940B016C2F6F29C8010E94FA
:100260000B01DF91CF911F910F91FF9008950F9394
:100270001F93CF93DF938C01EB01688106C041E0AF
:10028000C8010E941A01219668816111F8CFDF919F
:10029000CF911F910F91089540E00E941A01089597
:1002A000CF93DF9300D000D0CDB7DEB7198220E422
:1002B0002A8324E12B8324E52C83E1E0F0E0EC0F9A
:1002C000FD1FE60FF11D6081640F60680E944C0104
:1002D0000F900F900F900F90DF91CF910895CF93D3
:1002E000DF93EC0161E00E944C018FE39FE10197F5
:1002F000F1F700C0000040E060E0CE010E94500134
:10030000DF91CF91089562E00E944C018FE39FE15D
:100310000197F1F700C000000895FC016581262FC8
:10032000246025836C600E944C010895CF93DF9375
:10033000CDB7DEB72E970FB6F894DEBF0FBECDBF98
:10034000888769874A871B862C8784E08D8782E0AF
:100350008E87423018F0822F88608C87222329F004
:10036000413019F48C8584608C872FEF81EE94E006
:10037000215080409040E1F700C0000060E0CE01D5
:1003800008960E94E2002FEF83ED90E32150804019
:100390009040E1F700C0000060E3CE0108960E94A3
:1003A000E2008FE496E40197F1F700C0000060E3FB
:1003B000CE0108960E940B018FE496E40197F1F7B5
:1003C00000C0000060E3CE0108960E940B0187E5A3
:1003D00092E00197F1F700C0000060E2CE010896BC
:1003E0000E940B016C856062CE0108960E944C0150
:1003F000CE0108960E948D01CE0108960E946F01E1
:100400006E856460CE0108960E944C01CE0108966C
:100410000E94830187E0FE013896DE01119601906B
:100420000D928A95E1F729813A814B815C816D813A
:100430007E818F8190E02E960FB6F894DEBF0FBEBE
:10044000CDBFDF91CF9108951F920F920FB60F92FB
:1004500011248F934A9B05C04A99FECF81E0809377
:1004600004018F910F900FBE0F901F90189584EA92
:100470008093DC008091DC008823E4F7089584E910
:100480008093DC0008958093DB0084E88093DC0097
:100490008091DC008823E4F70895CF93DF93C82F81
:1004A000D92F0E94370284EC0E9443028D2F8F7057
:1004B0000E9443028C2F0E9443020E943F02DF9160
:1004C000CF910895CF93DF93CDB7DEB72B970FB6BB
:1004D000F894DEBF0FBECDBF8AB184708AB9E8E65A
:1004E000F0E0808184608083EDE6F0E080818460CC
:1004F000808360EA76E881E090E00E94790020E065
:1005000044E064E187E20E9496012D833E834F839D
:10051000588769877A878B87CE0105960E94E90004
:10052000789400E010E0F12C02C000E010E080912F
:100530000401882309F1F3941F92FF9280E091E077
:100540009F938F93CE0101966C019F938F930E948E
:10055000E702B601CE0105960E94370140E061E056
:10056000CE0105960E945001109204010F900F9049
:100570000F900F900F900F90C8010E944D020F3FF7
:100580001F4099F20FEF1FE0D2CFA1E21A2EAA1B53
:10059000BB1BFD010DC0AA1FBB1FEE1FFF1FA21733
:1005A000B307E407F50720F0A21BB30BE40BF50B30
:1005B000661F771F881F991F1A9469F760957095B9
:1005C000809590959B01AC01BD01CF010895AEE0EF
:1005D000B0E0EDEEF2E00C94A8050D891E8986E0EE
:1005E0008C831A8309838FEF9FE79E838D83AE01EF
:1005F000475E5F4F6F89788DCE0101960E94090397
:10060000EF81F885E00FF11F10822E96E4E00C9444
:10061000C405ABE0B0E0EFE0F3E00C949A056C01A8
:100620007B018A01FC0117821682838181FFCCC184
:10063000CE0101963C01F6019381F70193FD85916E
:1006400093FF81917F01882309F4BAC1853239F47F
:1006500093FD859193FF81917F01853229F4B60145
:1006600090E00E940005E7CF912C212C312CFFE176
:10067000F315D8F08B3279F038F4803279F0833288
:10068000A1F4232D20611DC08D3261F0803369F407
:10069000232D216016C0832D8260382EE32DE46067
:1006A0003E2E2AC0F32DF8601DC037FC2DC020ED72
:1006B000280F2A3040F08E32B9F436FC81C1232D48
:1006C0002064322E19C036FE06C08AE0989E200DA6
:1006D0001124922E11C0EAE02E9E200D1124222E0C
:1006E000F32DF0623F2E08C08C3621F4832D8068F4
:1006F000382E02C0883641F4F70193FD859193FFAF
:1007000081917F018111B3CF982F9F7D95549330B4
:1007100028F40C5F1F4F9FE399830DC0833631F09F
:10072000833771F0833509F059C021C0F801808109
:1007300089830E5F1F4F88248394912C530113C02B
:100740002801F2E04F0E511CF801A080B18036FE66
:1007500003C0692D70E002C06FEF7FEFC5010E94FA
:10076000F5044C018201F32DFF773F2E16C02801BE
:1007700022E0420E511CF801A080B18036FE03C079
:10078000692D70E002C06FEF7FEFC5010E94EA049F
:100790004C01F32DF0683F2E820133FC1BC0822DEB
:1007A00090E088169906B0F4B60180E290E00E94CD
:1007B00000052A94F4CFF50137FC859137FE81912D
:1007C0005F01B60190E00E94000521102A9421E00B
:1007D000821A91088114910471F7E8C0843611F0EF
:1007E000893641F5F80137FE07C060817181828149
:1007F00093810C5F1F4F08C060817181072E000C30
:10080000880B990B0E5F1F4FF32DFF763F2E97FF3E
:1008100009C090958095709561957F4F8F4F9F4F40
:10082000F0683F2E2AE030E0A3010E943C05882EAC
:10083000861845C0853731F4232D2F7EB22E2AE04D
:1008400030E025C0932D997FB92E8F36C1F018F472
:10085000883579F0B5C0803719F0883721F0B0C0FD
:10086000E92FE061BE2EB4FE0DC0FB2DF460BF2E5B
:1008700009C034FE0AC0292F2660B22E06C028E027
:1008800030E005C020E130E002C020E132E0F801B4
:10089000B7FE07C060817181828193810C5F1F4F19
:1008A00006C06081718180E090E00E5F1F4FA30160
:1008B0000E943C05882E8618FB2DFF773F2E36FEC2
:1008C0000DC0232D2E7FA22E891458F434FE0BC0A8
:1008D00032FC09C0832D8E7EA82E05C0B82CA32C17
:1008E00003C0B82C01C0B92CA4FE0FC0FE01E80D56
:1008F000F11D8081803321F49A2D997EA92E09C0A3
:10090000A2FE06C0B394B39404C08A2D867809F081
:10091000B394A3FC11C0A0FE06C0B21488F4280C46
:10092000922C9B180EC0B21460F4B60180E290E0E5
:100930000E940005B394F7CFB21418F42B1802C02C
:10094000982C212CA4FE10C0B60180E390E00E94F8
:100950000005A2FE17C0A1FC03C088E790E002C01A
:1009600088E590E0B6010CC08A2D867859F0A1FE8A
:1009700002C08BE201C080E2A7FC8DE2B60190E0EC
:100980000E940005891438F4B60180E390E00E94CB
:1009900000059A94F7CF8A94F301E80DF11D808148
:1009A000B60190E00E9400058110F5CF222009F4E5
:1009B00042CEB60180E290E00E9400052A94F6CF74
:1009C000F6018681978102C08FEF9FEF2B96E2E1BF
:1009D0000C94B605FC010590615070400110D8F7E9
:1009E000809590958E0F9F1F0895FC016150704077
:1009F00001900110D8F7809590958E0F9F1F089554
:100A00000F931F93CF93DF93FB01238121FD03C03D
:100A10008FEF9FEF2CC022FF16C0468157812481A3
:100A200035814217530744F4A081B1819D012F5FA6
:100A30003F4F318320838C93268137812F5F3F4F37
:100A40003783268314C08B01EC01FB010084F18500
:100A5000E02D0995892BE1F6D80116968D919C9190
:100A60001797019617969C938E931697CE01DF9158
:100A7000CF911F910F910895FA01AA27283051F1C3
:100A8000203181F1E8946F936E7F6E5F7F4F8F4FBF
:100A90009F4FAF4FB1E03ED0B4E03CD0670F781F1E
:100AA000891F9A1FA11D680F791F8A1F911DA11D03
:100AB0006A0F711D811D911DA11D20D009F468943C
:100AC0003F912AE0269F11243019305D3193DEF6E4
:100AD000CF010895462F4770405D4193B3E00FD09A
:100AE000C9F7F6CF462F4F70405D4A3318F0495D85
:100AF00031FD4052419302D0A9F7EACFB4E0A69568
:100B00009795879577956795BA95C9F70097610589
:100B1000710508959B01AC010A2E069457954795DF
:100B200037952795BA95C9F7620F731F841F951FD4
:100B3000A01D08952F923F924F925F926F927F92E5
:100B40008F929F92AF92BF92CF92DF92EF92FF92DD
:100B50000F931F93CF93DF93CDB7DEB7CA1BDB0B89
:100B60000FB6F894DEBF0FBECDBF09942A8839882E
:100B700048885F846E847D848C849B84AA84B98435
:100B8000C884DF80EE80FD800C811B81AA81B98141
:100B9000CE0FD11D0FB6F894DEBF0FBECDBFED0155
:060BA0000895F894FFCF58
:040BA60025640000C2
:00000001FF
