:100000000C945A000C9477000C9477000C947700B1
:100010000C9477000C9424020C9477000C947700D5
:100020000C9477000C9477000C9477000C94770074
:100030000C9477000C9477000C9477000C94770064
:100040000C9477000C9477000C9477000C94770054
:100050000C9477000C9477000C9477000C94770044
:100060000C9477000C9477000C9477000C94770034
:100070000C9477000C9477000C9477000C94770024
:100080000C9477000C9477000C9477000C94770014
:100090000C9477000C9477000C9477000C94770004
:1000A0000C9477000C9477000C9477000C947700F4
:1000B0000C94770011241FBECFEFD8E0DEBFCDBF78
:1000C00011E0A0E0B1E0E8EEF5E002C005900D928D
:1000D000AA33B107D9F721E0AAE3B1E001C01D922C
:1000E000AD33B207E1F70E9440020C94F2020C9487
:1000F00000009B01AC011092B90060E074E284EF53
:1001000090E00E94D002DA01C9014097A109B1092B
:10011000B695A795979587958093B8000895ECEBD1
:10012000F0E0108294EA90839091BC009923E4F768
:100130009091B900987F983011F09031B1F490E02F
:10014000880F991F862B8093BB0084E88093BC00A6
:100150008091BC008823E4F78091B900887F8831C2
:1001600031F0803431F480E008958AE0089580E031
:10017000089584E108958093BB0084E88093BC00D7
:100180008091BC008823E4F78091B900887F883291
:1001900011F085E1089580E0089584E98093BC0022
:1001A0000895CF93C62F60E00E948F00811108C090
:1001B0008C2F0E94BB00811103C00E94CD0080E003
:1001C000CF910895FC012381622B80810E94D10090
:1001D000089528E0FC01238360E00E94E200089576
:1001E0000F931F93CF938C01C62F64600E94E2008F
:1001F0008AE08A95F1F700C06C2F6B7FC8010E94DE
:10020000E20087EC90E00197F1F700C00000CF9189
:100210001F910F9108951F93CF93DF93EC01162F39
:100220000E94E200612FCE010E94F000DF91CF9189
:100230001F910895FF920F931F93CF93DF938C012B
:10024000F42E862F807F90E1699FE0011124682FB2
:10025000642BC8010E940B016C2F6F29C8010E94FA
:100260000B01DF91CF911F910F91FF9008950F9394
:100270001F93CF93DF938C01EB01688106C041E0AF
:10028000C8010E941A01219668816111F8CFDF919F
:10029000CF911F910F91089540E00E941A01089597
:1002A000CF93DF9300D000D0CDB7DEB7198220E422
:1002B0002A8324E12B8324E52C83E1E0F0E0EC0F9A
:1002C000FD1FE60FF11D6081640F60680E944C0104
:1002D0000F900F900F900F90DF91CF910895CF93D3
:1002E000DF93EC0161E00E944C018FE39FE10197F5
:1002F000F1F700C0000040E060E0CE010E94500134
:10030000DF91CF91089562E00E944C018FE39FE15D
:100310000197F1F700C000000895FC016581262FC8
:10032000246025836C600E944C010895CF93DF9375
:10033000CDB7DEB72E970FB6F894DEBF0FBECDBF98
:10034000888769874A871B862C8784E08D8782E0AF
:100350008E87423018F0822F88608C87222329F004
:10036000413019F48C8584608C872FEF81EE94E006
:10037000215080409040E1F700C0000060E0CE01D5
:1003800008960E94E2002FEF83ED90E32150804019
:100390009040E1F700C0000060E3CE0108960E94A3
:1003A000E2008FE496E40197F1F700C0000060E3FB
:1003B000CE0108960E940B018FE496E40197F1F7B5
:1003C00000C0000060E3CE0108960E940B0187E5A3
:1003D00092E00197F1F700C0000060E2CE010896BC
:1003E0000E940B016C856062CE0108960E944C0150
:1003F000CE0108960E948D01CE0108960E946F01E1
:100400006E856460CE0108960E944C01CE0108966C
:100410000E94830187E0FE013896DE01119601906B
:100420000D928A95E1F729813A814B815C816D813A
:100430007E818F8190E02E960FB6F894DEBF0FBEBE
:10044000CDBFDF91CF9108951F920F920FB60F92FB
:1004500011248F93499B06C081E080933C01109248
:100460003B0105C081E080933B0110923C0181E09B
:1004700080933A018F910F900FBE0F901F901895A7
:10048000CF93DF93CDB7DEB727970FB6F894DEBFD3
:100490000FBECDBF8AB18D7F8AB9E8E6F0E08081DA
:1004A00084608083EDE6F0E08081826080837894D0
:1004B00060EA76E881E090E00E94790020E044E084
:1004C00064E187E20E94960129833A834B835C832F
:1004D0006D837E838F83CE0101960E94E900809117
:1004E0003A018823E1F380913C01882309F441C05B
:1004F000CE0101960E946F0140E061E0CE010196BD
:100500000E94500160E071E0CE0101960E94370127
:100510002FEF87EA91E6215080409040E1F700C03C
:100520000000CE0101960E946F0140E060E0CE0124
:1005300001960E94500164E171E0CE0101960E9493
:10054000370140E061E0CE0101960E9450016EE16A
:1005500071E0CE0101960E94370140E062E0CE01D9
:1005600001960E94500168E271E0CE0101960E945E
:10057000370180913B01882381F0CE0101960E94D2
:100580006F0140E061E0CE0101960E94500161E3FD
:1005900071E0CE0101960E94370110923A019FCF7F
:1005A000A1E21A2EAA1BBB1BFD010DC0AA1FBB1F77
:1005B000EE1FFF1FA217B307E407F50720F0A21BE9
:1005C000B30BE40BF50B661F771F881F991F1A9456
:1005D00069F760957095809590959B01AC01BD0180
:0805E000CF010895F894FFCF4C
:1005E800544F4E452047454E455241544F52204D99
:1005F8004F444500416D706C6974756465004672BE
:10060800657175656E63790057617665666F726DA1
:0A06180000415558204D4F444500A5
:00000001FF
