:100000000C9442040C945F040C945F040C945F0401
:100010000C945F040C94770A0C945F040C945F04B6
:100020000C945F040C945F040C945F040C945F04C4
:100030000C945F040C945F040C945F040C945F04B4
:100040000C945F040C945F040C945F040C945F04A4
:100050000C945F040C945F040C945F040C945F0494
:100060000C945F040C945F040C945F040C945F0484
:100070000C945F040C945F040C945F040C945F0474
:100080000C945F040C945F040C945F040C945F0464
:100090000C945F040C945F040C945F040C945F0454
:1000A0000C945F040C945F040C945F040C945F0444
:1000B0000C945F0400080D081A082708330840084C
:1000C0004D085A086708740881088D089A08A7081F
:1000D000B408C108CE08DA08E708F40801090D09D8
:1000E0001A092709340940094D095A096609730993
:1000F00080098C099909A609B209BF09CB09D80959
:10010000E409F109FD090A0A160A230A2F0A3B0A23
:10011000480A540A600A6D0A790A850A910A9D0AFA
:10012000AA0AB60AC20ACE0ADA0AE60AF20AFE0ADF
:100130000A0B160B220B2D0B390B450B510B5C0BCD
:10014000680B740B7F0B8B0B960BA20BAD0BB90BD3
:10015000C40BCF0BDB0BE60BF10BFC0B070C130CEA
:100160001E0C290C340C3E0C490C540C5F0C6A0C10
:10017000740C7F0C8A0C940C9F0CA90CB40CBE0C54
:10018000C90CD30CDD0CE70CF10CFB0C060D100DAB
:10019000190D230D2D0D370D410D4A0D540D5E0D1A
:1001A000670D710D7A0D830D8D0D960D9F0DA80DA8
:1001B000B10DBA0DC30DCC0DD50DDE0DE60DEF0D55
:1001C000F80D000E090E110E190E220E2A0E320E17
:1001D0003A0E420E4A0E520E5A0E620E6A0E710E00
:1001E000790E800E880E8F0E970E9E0EA50EAC0E09
:1001F000B30EBA0EC10EC80ECF0ED60EDC0EE30E35
:10020000E90EF00EF60EFC0E030F090F0F0F150F7F
:100210001B0F210F270F2C0F320F380F3D0F430FED
:10022000480F4D0F520F580F5D0F620F670F6B0F86
:10023000700F750F7A0F7E0F830F870F8B0F8F0F45
:10024000940F980F9C0FA00FA40FA70FAB0FAF0F29
:10025000B20FB60FB90FBC0FC00FC30FC60FC90F37
:10026000CC0FCF0FD10FD40FD70FD90FDC0FDE0F6C
:10027000E00FE30FE50FE70FE90FEB0FEC0FEE0FC9
:10028000F00FF10FF30FF40FF60FF70FF80FF90F50
:10029000FA0FFB0FFC0FFD0FFD0FFE0FFF0FFF0FFF
:1002A000FF0F0010001000100010001000100010D0
:1002B000FF0FFF0FFF0FFE0FFD0FFD0FFC0FFB0FDA
:1002C000FA0FF90FF80FF70FF60FF40FF30FF10F06
:1002D000F00FEE0FEC0FEB0FE90FE70FE50FE30F59
:1002E000E00FDE0FDC0FD90FD70FD40FD10FCF0FD8
:1002F000CC0FC90FC60FC30FC00FBC0FB90FB60F7D
:10030000B20FAF0FAB0FA70FA40FA00F9C0F980F4A
:10031000940F8F0F8B0F870F830F7E0F7A0F750F40
:10032000700F6B0F670F620F5D0F580F520F4D0F5D
:10033000480F430F3D0F380F320F2C0F270F210F9F
:100340001B0F150F0F0F090F030FFC0EF60EF00E0B
:10035000E90EE30EDC0ED60ECF0EC80EC10EBA0E9D
:10036000B30EAC0EA50E9E0E970E8F0E880E800E4D
:10037000790E710E6A0E620E5A0E520E4A0E420E1F
:100380003A0E320E2A0E220E190E110E090E000E12
:10039000F80DEF0DE60DDE0DD50DCC0DC30DBA0D2C
:1003A000B10DA80D9F0D960D8D0D830D7A0D710D5C
:1003B000670D5E0D540D4A0D410D370D2D0D230DAA
:1003C000190D100D060DFB0CF10CE70CDD0CD30C18
:1003D000C90CBE0CB40CA90C9F0C940C8A0C7F0C9D
:1003E000740C6A0C5F0C540C490C3E0C340C290C38
:1003F0001E0C130C070CFC0BF10BE60BDB0BCF0BED
:10040000C40BB90BAD0BA20B960B8B0B7F0B740BB4
:10041000680B5C0B510B450B390B2D0B220B160B8C
:100420000A0BFE0AF20AE60ADA0ACE0AC20AB60A7B
:10043000AA0A9D0A910A850A790A6D0A600A540A75
:10044000480A3B0A2F0A230A160A0A0AFD09F1097B
:10045000E409D809CB09BF09B209A60999098C0991
:100460008009730966095A094D09400934092709A9
:100470001A090D090109F408E708DA08CE08C108CD
:10048000B408A7089A088D088108740867085A08F4
:100490004D084008330827081A080D080008F3071C
:1004A000E607D907CD07C007B307A60799078C074A
:1004B0007F077307660759074C073F073207260770
:1004C00019070C07FF06F306E606D906CC06C00698
:1004D000B306A6069A068D068006740667065A06B7
:1004E0004E064106350628061C060F060306F605CD
:1004F000EA05DD05D105C505B805AC05A0059305E0
:1005000087057B056F05630556054A053E053205DF
:1005100026051A050E050205F604EA04DE04D304D6
:10052000C704BB04AF04A40498048C0481047504BC
:100530006A045E04530447043C04310425041A048D
:100540000F040404F903ED03E203D703CC03C20351
:10055000B703AC03A10396038C03810376036C03FA
:10056000610357034C03420337032D03230319038D
:100570000F030503FA02F002E702DD02D302C9020B
:10058000BF02B602AC02A20299028F0286027D026D
:1005900073026A02610258024F0246023D023402AF
:1005A0002B0222021A02110208020002F701EF01D7
:1005B000E701DE01D601CE01C601BE01B601AE01E2
:1005C000A6019E0196018F018701800178017101CA
:1005D000690162015B0154014D0146013F0138018F
:1005E00031012A0124011D01170110010A01040132
:1005F000FD00F700F100EB00E500DF00D900D400BA
:10060000CE00C800C300BD00B800B300AE00A80013
:10061000A3009E009900950090008B008600820048
:100620007D007900750071006C0068006400600056
:100630005C005900550051004E004A00470044003C
:1006400040003D003A003700340031002F002C00FC
:10065000290027002400220020001D001B00190093
:10066000170015001400120010000F000D000C0000
:100670000A00090008000700060005000400030046
:100680000300020001000100010000000000000062
:100690000000000000000000010001000100020055
:1006A000030003000400050006000700080009001D
:1006B0000A000C000D000F001000120014001500BD
:1006C000170019001B001D00200022002400270035
:1006D00029002C002F003100340037003A003D0083
:1006E0004000440047004A004E00510055005900A8
:1006F0005C006000640068006C00710075007900A7
:100700007D00820086008B009000950099009E007D
:10071000A300A800AE00B300B800BD00C300C8002D
:10072000CE00D400D900DF00E500EB00F100F700B7
:10073000FD0004010A01100117011D0124012A0115
:10074000310138013F0146014D0154015B01620155
:10075000690171017801800187018F0196019E0175
:10076000A601AE01B601BE01C601CE01D601DE0171
:10077000E701EF01F7010002080211021A0222024A
:100780002B0234023D0246024F02580261026A0205
:1007900073027D0286028F029902A202AC02B602A7
:1007A000BF02C902D302DD02E702F002FA0205032A
:1007B0000F03190323032D03370342034C0357038D
:1007C00061036C03760381038C039603A103AC03DE
:1007D000B703C203CC03D703E203ED03F903040418
:1007E0000F041A04250431043C04470453045E0436
:1007F0006A04750481048C049804A404AF04BB0447
:10080000C704D304DE04EA04F60402050E051A0543
:10081000260532053E054A05560563056F057B052D
:1008200087059305A005AC05B805C505D105DD050F
:10083000EA05F60503060F061C06280635064106DE
:100840004E065A066706740680068D069A06A606A8
:10085000B306C006CC06D906E606F306FF060C076B
:100860001907260732073F074C0759076607730722
:100870007F078C079907A607B307C007CD07D907DD
:10088000E607F30711241FBECFEFD8E0DEBFCDBFD0
:1008900011E0A0E0B1E0EEECFFE102C005900D92A6
:1008A000A438B107D9F721E0A4E8B1E001C01D9256
:1008B000A738B207E1F70E9436060C94E50F0C94B6
:1008C00000009B01AC011092B90060E074E284EF7B
:1008D00090E00E94CA0CDA01C9014097A109B10950
:1008E000B695A795979587958093B8000895ECEBFA
:1008F000F0E0108294EA90839091BC009923E4F791
:100900009091B900987F983011F09031B1F490E057
:10091000880F991F862B8093BB0084E88093BC00CE
:100920008091BC008823E4F78091B900887F8831EA
:1009300031F0803431F480E008958AE0089580E059
:10094000089584E108958093BB0084E88093BC00FF
:100950008091BC008823E4F78091B900887F8832B9
:1009600011F085E1089580E0089584E98093BC004A
:100970000895CF93C62F60E00E947704811108C0CC
:100980008C2F0E94A304811103C00E94B50480E053
:10099000CF9108951092D9008CE08093D8000895EB
:1009A00084EA8093DC008091DC008823E4F70895DA
:1009B00084E98093DC0008958093DB0084E88093D1
:1009C000DC008091DC008823E4F70895CF93DF9367
:1009D000C82FD92F0E94D00484EC0E94DC048D2FF4
:1009E0008F700E94DC048C2F0E94DC040E94D804CB
:1009F000DF91CF910895FC012381622B80810E94B9
:100A0000B90408950F931F93CF938C01C62F646090
:100A10000E94FB048AE08A95F1F700C06C2F6B7F7F
:100A2000C8010E94FB0487EC90E00197F1F700C039
:100A30000000CF911F910F9108951F93CF93DF93E3
:100A4000EC01162F0E94FB04612FCE010E940205CB
:100A5000DF91CF911F910895FF920F931F93CF9332
:100A6000DF938C01F42E862F807F90E1699FE00157
:100A70001124682F642BC8010E941D056C2F6F295B
:100A8000C8010E941D05DF91CF911F910F91FF902A
:100A900008950F931F93CF93DF938C01EB0168812F
:100AA00006C041E0C8010E942C05219668816111B1
:100AB000F8CFDF91CF911F910F91089540E00E94F0
:100AC0002C050895CF93DF9300D000D0CDB7DEB7CB
:100AD000198220E42A8324E12B8324E52C83E1E09E
:100AE000F0E0EC0FFD1FE60FF11D6081640F606800
:100AF0000E945E050F900F900F900F90DF91CF91A5
:100B00000895CF93DF93EC0161E00E945E058FE3CF
:100B10009FE10197F1F700C0000040E060E0CE01E6
:100B20000E946205DF91CF91089562E00E945E0508
:100B30008FE39FE10197F1F700C000000895FC01E9
:100B40006581262F246025836C600E945E050895D0
:100B5000CF93DF93CDB7DEB72E970FB6F894DEBFF5
:100B60000FBECDBF888769874A871B862C8784E0A4
:100B70008D8782E08E87423018F0822F88608C87C4
:100B8000222329F0413019F48C8584608C872FEF63
:100B900081EE94E0215080409040E1F700C00000D9
:100BA00060E0CE0108960E94FB042FEF83ED90E3F6
:100BB000215080409040E1F700C0000060E3CE018A
:100BC00008960E94FB048FE496E40197F1F700C0B9
:100BD000000060E3CE0108960E941D058FE496E4B4
:100BE0000197F1F700C0000060E3CE0108960E9473
:100BF0001D0587E592E00197F1F700C0000060E273
:100C0000CE0108960E941D056C856062CE01089693
:100C10000E945E05CE0108960E949F05CE010896AF
:100C20000E9481056E856460CE0108960E945E0573
:100C3000CE0108960E94950587E0FE013896DE01F8
:100C4000119601900D928A95E1F729813A814B81A5
:100C50005C816D817E818F8190E02E960FB6F89435
:100C6000DEBF0FBECDBFDF91CF910895CF93DF934D
:100C7000CDB7DEB7EF970FB6F894DEBF0FBECDBF8E
:100C80008AB184708AB98AB180718AB98AB1807850
:100C90008AB98BE1E0E0F1E0DE011A9601900D9255
:100CA0008A95E1F784E1EBE1F1E0DE0195960190B0
:100CB0000D928A95E1F760EA76E881E090E00E9483
:100CC000610420E044E064E187E20E94A80529AFC6
:100CD0003AAF4BAF5CAF6DAF7EAF8FAF40E060E03F
:100CE000CE01C9960E9462056FE271E0CE01C996FD
:100CF0000E94490540E061E0CE01C9960E9462056C
:100D000069E371E0CE01C9960E94490540E062E0C6
:100D1000CE01C9960E94620563E471E0CE01C996D6
:100D20000E944905E8E6F0E0808184608083EDE67A
:100D3000F0E080818469808378940E94CA0441E154
:100D400060E0CE01C9960E9462051F9282E38F93F4
:100D50000CE411E01F930F93CE0101967C019F9349
:100D60008F930E94FB0CB701CE01C9960E944905E2
:100D700065E571E0CE01C9960E9449054EE061E04B
:100D8000CE01C9960E94620564E571E0CE01C99664
:100D90000E9449058EA18F938DA18F931F930F936E
:100DA0008E010B5F1F4F1F930F930E94FB0CB80126
:100DB000CE01C9960E94490542E161E0CE01C99683
:100DC0000E9462056FE471E0CE01C9960E94490558
:100DD0004CE062E0CE01C9960E94620562E571E0D6
:100DE000CE01C9960E944905BE01665F7F4FCE01C4
:100DF000C9960E94490540E063E0CE01C9960E9471
:100E0000620567E571E0CE01C9960E9449050FB6FB
:100E1000F894DEBF0FBECDBFF12C00E010E00F2E26
:100E2000F2E3EF2EF02D0130A9F018F0023019F1A5
:100E300032C0EF2DF0E0EE0FFF1F81E090E08C0F4D
:100E40009D1FE80FF91F64A175A18E2D90E00E94EF
:100E5000B70A21C0EF2DF0E0EE0FFF1F81E090E018
:100E60008C0F9D1FE80FF91F64A175A18E2D90E0D6
:100E70000E94E30A10C0EF2DF0E0EE0FFF1F81E0AB
:100E800090E08C0F9D1FE80FF91F64A175A18E2DB6
:100E900090E00E940E0B80918601882309F4F7C030
:100EA000123009F45BC028F4112361F0113081F194
:100EB000ECC0143009F49EC008F476C0153009F473
:100EC000BFC0E3C040E160E0CE01C9960E94620568
:100ED0006CE671E0CE01C9960E94490549E060E0E8
:100EE000CE01C9960E94620565E571E0CE01C99602
:100EF0000E94490540E063E0CE01C9960E94620568
:100F00006EE671E0CE01C9960E94490513E0BDC0AE
:100F10004CE061E0CE01C9960E9462056CE671E08A
:100F2000CE01C9960E94490549E061E0CE01C9960B
:100F30000E94620565E571E0CE01C9960E944905EF
:100F400040E063E0CE01C9960E9462056EE671E062
:100F5000CE01C9960E94490514E097C04BE062E0BB
:100F6000CE01C9960E9462056CE671E0CE01C99679
:100F70000E94490548E062E0CE01C9960E946205E0
:100F800065E571E0CE01C9960E94490540E063E045
:100F9000CE01C9960E9462056EE671E0CE01C99647
:100FA0000E94490515E071C049E060E0CE01C99694
:100FB0000E94620561E871E0CE01C9960E94490570
:100FC00040E160E0CE01C9960E94620565E571E0EE
:100FD000CE01C9960E94490540E063E0CE01C99662
:100FE0000E94620567E571E0CE01C9960E9449053D
:100FF00010E04BC049E061E0CE01C9960E94620555
:1010000061E871E0CE01C9960E9449054CE061E0BB
:10101000CE01C9960E94620565E571E0CE01C996D0
:101020000E94490540E063E0CE01C9960E94620536
:1010300067E571E0CE01C9960E94490511E025C01F
:1010400048E062E0CE01C9960E94620561E871E065
:10105000CE01C9960E9449054BE062E0CE01C996D7
:101060000E94620565E571E0CE01C9960E944905BE
:1010700040E063E0CE01C9960E94620567E571E039
:10108000CE01C9960E94490512E010928601809116
:101090008501882309F412C1123009F443C028F4F1
:1010A000112361F0113021F107C1143009F48CC013
:1010B00008F452C0153009F4CDC0FEC049E060E02C
:1010C000CE01C9960E94620565E571E0CE01C99620
:1010D0000E94490548E062E0CE01C9960E9462057F
:1010E00061E871E0CE01C9960E94490512E0E4C0B2
:1010F00049E060E0CE01C9960E94620561E871E0B6
:10110000CE01C9960E94490549E061E0CE01C99629
:101110000E94620565E571E0CE01C9960E9449050D
:1011200010E0CAC049E061E0CE01C9960E946205A4
:1011300061E871E0CE01C9960E94490548E062E08D
:10114000CE01C9960E94620565E571E0CE01C9969F
:101150000E94490511E0B0C093E69E1508F4ACC0AA
:10116000E39441E160E0CE01C9960E9462051F92BE
:10117000EF928CE491E09F938F93CE0101966C01E6
:101180009F938F930E94FB0CB601CE01C9960E94DB
:1011900049050F900F900F900F900F900F9099E0CE
:1011A0009E1538F064E571E0CE01C9960E944905AC
:1011B00083C083E68E1508F47FC065E571E0CE013B
:1011C000C9960E94490578C099E0F91611F0F39488
:1011D00001C0F12C4EE061E0CE01C9960E9462058B
:1011E00081E08F1520F496E09F1570F007C064E54C
:1011F00071E0CE01C9960E94490506C065E571E01F
:10120000CE01C9960E944905EF2DF0E0EE0FFF1FB9
:1012100081E090E08C0F9D1FE80FF91F85A18F934F
:1012200084A18F938CE491E09F938F936E0195E05E
:10123000C90ED11CDF92CF920E94FB0CB601CE01E9
:10124000C9960E9449050F900F900F900F900F9034
:101250000F9032C0023011F00F5F01C000E04CE08F
:1012600062E0CE01C9960E946205002319F00130A8
:1012700041F00DC062E571E0CE01C9960E944905BA
:1012800006C064E571E0CE01C9960E944905802F31
:1012900090E0BC01660F771F660F771F660F771F00
:1012A000680F791F8AE090E08C0F9D1F680F791FEF
:1012B000CE01C9960E944905109285018091840152
:1012C000882309F4B0CD123009F443C028F4112367
:1012D00061F0113021F108C1143009F48BC008F419
:1012E00052C0153009F4CEC0FFC049E060E0CE0125
:1012F000C9960E94620565E571E0CE01C9960E941B
:10130000490549E061E0CE01C9960E94620561E8A5
:1013100071E0CE01C9960E94490511E0E5C049E09F
:1013200061E0CE01C9960E94620565E571E0CE01DB
:10133000C9960E94490548E062E0CE01C9960E9424
:10134000620561E871E0CE01C9960E94490512E08C
:10135000CBC049E060E0CE01C9960E94620561E819
:1013600071E0CE01C9960E94490548E062E0CE01D5
:10137000C9960E94620565E571E0CE01C9960E949A
:10138000490510E0B1C0EE2009F4AEC0EA9441E195
:1013900060E0CE01C9960E9462051F92EF928CE434
:1013A00091E09F938F93CE0101966C019F938F9351
:1013B0000E94FB0CB601CE01C9960E9449050F9010
:1013C0000F900F900F900F900F9099E09E1538F0AE
:1013D00064E571E0CE01C9960E94490585C083E6A7
:1013E0008E1508F481C065E571E0CE01C9960E94B2
:1013F00049057AC0FF2011F0FA9404C00F2EF9E0DD
:10140000FF2EF02D4EE061E0CE01C9960E946205EC
:1014100091E09F1520F486E08F1570F007C064E519
:1014200071E0CE01C9960E94490506C065E571E0EC
:10143000CE01C9960E944905EF2DF0E0EE0FFF1F87
:1014400081E090E08C0F9D1FE80FF91F85A18F931D
:1014500084A18F938CE491E09F938F936E0195E02C
:10146000C90ED11CDF92CF920E94FB0CB601CE01B7
:10147000C9960E9449050F900F900F900F900F9002
:101480000F9032C0002311F0015001C002E04CE087
:1014900062E0CE01C9960E946205002319F0013076
:1014A00041F00DC062E571E0CE01C9960E94490588
:1014B00006C064E571E0CE01C9960E944905802FFF
:1014C00090E0BC01660F771F660F771F660F771FCE
:1014D000680F791F8AE090E08C0F9D1F680F791FBD
:1014E000CE01C9960E944905109284019CCC1F929E
:1014F0000F920FB60F9211242F938F939F934A9BB5
:101500000EC02FEF80E792E0215080409040E1F73D
:1015100000C000004A99FECF81E0809386014C9B79
:101520000EC02FEF80E792E0215080409040E1F71D
:1015300000C000004C99FECF81E0809385014F9B55
:101540000EC02FEF80E792E0215080409040E1F7FD
:1015500000C000004F99FECF81E0809384019F91ED
:101560008F912F910F900FBE0F901F9018950F9392
:101570001F93CF93DF938C01C0E0D0E01BC0FE012E
:10158000EE0FFF1FEC54FF4F85919491809F9001C7
:10159000819F300D909F300D1124369527953695FB
:1015A0002795ABE7B4E10E94EC0C969587950E94D5
:1015B000E604A896C83E83E0D80708F3DF91CF91F0
:1015C0001F910F910895CF92DF92EF92FF92BC018D
:1015D00080E090E00E94A60B2DEC3CEC43E252E44C
:1015E0000E94110C0E94770B6B017C0180E090E05F
:1015F0000E94E60489EF90E00197F1F700C0000037
:10160000C6010E94E60489EF90E00197F1F700C05F
:101610000000FF90EF90DF90CF9008954F925F927F
:101620006F927F928F929F92AF92BF92CF92DF92F2
:10163000EF92FF921F93CF93DF936C019C0136953D
:10164000279536952795ABE7B4E10E94EC0C96956B
:10165000879522E3289F7001299FF00C112411E047
:10166000C0E0D0E032C0CE010E94E604112329F18F
:10167000CE0DDF1DBE0180E090E00E94A60B2B0185
:101680003C01B60180E090E00E94A60B2DEC3CEC02
:1016900043E252E40E94110C4B015C019B01AC013E
:1016A000C301B2010E940C0C88237CF0C501B40177
:1016B0000E94770BEB0110E008C0CE19DF0929F476
:1016C00080E090E00E94E60412E0123061F6DF91C3
:1016D000CF911F91FF90EF90DF90CF90BF90AF9090
:1016E0009F908F907F906F905F904F9008950E9491
:1016F000EB0B88F09F5798F0B92F9927B751B0F0AE
:10170000E1F0660F771F881F991F1AF0BA95C9F785
:1017100014C0B13091F00E94050CB1E008950C9412
:10172000050C672F782F8827B85F39F0B93FCCF3C5
:10173000869577956795B395D9F73EF49095809502
:10174000709561957F4F8F4F9F4F0895E89409C022
:1017500097FB3EF490958095709561957F4F8F4FE4
:101760009F4F9923A9F0F92F96E9BB279395F695FA
:10177000879577956795B795F111F8CFFAF4BB0F78
:1017800011F460FF1BC06F5F7F4F8F4F9F4F16C0DC
:10179000882311F096E911C0772321F09EE8872F66
:1017A000762F05C0662371F096E8862F70E060E022
:1017B0002AF09A95660F771F881FDAF7880F96959B
:1017C000879597F9089557FD9058440F551F59F084
:1017D0005F3F71F04795880F97FB991F61F09F3F1E
:1017E00079F087950895121613061406551FF2CF47
:1017F0004695F1DF08C0161617061806991FF1CF97
:1018000086957105610508940895E894BB276627BD
:101810007727CB0197F908950E947E0C08F48FEF8B
:1018200008950E94240C0C94B90C0E94AB0C38F063
:101830000E94B20C20F0952311F00C94A20C0C9491
:10184000A80C11240C94060C0E94E30B70F3959FD6
:10185000C1F3950F50E0551F629FF001729FBB27A7
:10186000F00DB11D639FAA27F00DB11DAA1F649F43
:101870006627B00DA11D661F829F2227B00DA11DF6
:10188000621F739FB00DA11D621F839FA00D611D7C
:10189000221F749F3327A00D611D231F849F600D9D
:1018A000211D822F762F6A2F11249F5750409AF0C6
:1018B000F1F088234AF0EE0FFF1FBB1F661F771F52
:1018C000881F91505040A9F79E3F510580F00C941D
:1018D000A20C0C94060C5F3FE4F3983ED4F386957B
:1018E00077956795B795F795E7959F5FC1F7FE2BBD
:1018F000880F911D9695879597F90895990F00087F
:10190000550FAA0BE0E8FEEF16161706E807F907D1
:10191000C0F012161306E407F50798F0621B730B6C
:10192000840B950B39F40A2661F0232B242B252BED
:1019300021F408950A2609F4A140A6958FEF811D90
:10194000811D089597F99F6780E870E060E0089531
:101950009FEF80EC089500240A94161617061806C7
:101960000906089500240A941216130614060506A3
:101970000895092E0394000C11F4882352F0BB0F34
:1019800040F4BF2B11F460FF04C06F5F7F4F8F4F97
:101990009F4F0895A1E21A2EAA1BBB1BFD010DC08B
:1019A000AA1FBB1FEE1FFF1FA217B307E407F5070F
:1019B00020F0A21BB30BE40BF50B661F771F881FEB
:1019C000991F1A9469F760957095809590959B0181
:1019D000AC01BD01CF010895A29FB001B39FC0012A
:1019E000A39F700D811D1124911DB29F700D811D4B
:1019F0001124911D0895AEE0B0E0E1E0FDE00C940B
:101A0000BC0F0D891E8986E08C831A8309838FEFB2
:101A10009FE79E838D83AE01475E5F4F6F89788D10
:101A2000CE0101960E941D0DEF81F885E00FF11F98
:101A300010822E96E4E00C94D80FABE0B0E0E3E225
:101A4000FDE00C94AE0F6C017B018A01FC01178252
:101A50001682838181FFCCC1CE0101963C01F60143
:101A60009381F70193FD859193FF81917F018823F5
:101A700009F4BAC1853239F493FD859193FF8191C0
:101A80007F01853229F4B60190E00E94140FE7CF60
:101A9000912C212C312CFFE1F315D8F08B3279F009
:101AA00038F4803279F08332A1F4232D20611DC0F7
:101AB0008D3261F0803369F4232D216016C0832DAF
:101AC0008260382EE32DE4603E2E2AC0F32DF860AC
:101AD0001DC037FC2DC020ED280F2A3040F08E327B
:101AE000B9F436FC81C1232D2064322E19C036FE94
:101AF00006C08AE0989E200D1124922E11C0EAE0C3
:101B00002E9E200D1124222EF32DF0623F2E08C0B0
:101B10008C3621F4832D8068382E02C0883641F43B
:101B2000F70193FD859193FF81917F018111B3CFDF
:101B3000982F9F7D9554933028F40C5F1F4F9FE39F
:101B400099830DC0833631F0833771F0833509F006
:101B500059C021C0F801808189830E5F1F4F8824FE
:101B60008394912C530113C02801F2E04F0E511CB5
:101B7000F801A080B18036FE03C0692D70E002C07C
:101B80006FEF7FEFC5010E94090F4C018201F32D19
:101B9000FF773F2E16C0280122E0420E511CF801AB
:101BA000A080B18036FE03C0692D70E002C06FEFE7
:101BB0007FEFC5010E94FE0E4C01F32DF0683F2E11
:101BC000820133FC1BC0822D90E088169906B0F488
:101BD000B60180E290E00E94140F2A94F4CFF50140
:101BE00037FC859137FE81915F01B60190E00E943C
:101BF000140F21102A9421E0821A91088114910473
:101C000071F7E8C0843611F0893641F5F80137FEE6
:101C100007C060817181828193810C5F1F4F08C072
:101C200060817181072E000C880B990B0E5F1F4F8E
:101C3000F32DFF763F2E97FF09C090958095709504
:101C400061957F4F8F4F9F4FF0683F2E2AE030E025
:101C5000A3010E94500F882E861845C0853731F4A5
:101C6000232D2F7EB22E2AE030E025C0932D997FC0
:101C7000B92E8F36C1F018F4883579F0B5C08037A9
:101C800019F0883721F0B0C0E92FE061BE2EB4FE14
:101C90000DC0FB2DF460BF2E09C034FE0AC0292FF1
:101CA0002660B22E06C028E030E005C020E130E01A
:101CB00002C020E132E0F801B7FE07C06081718107
:101CC000828193810C5F1F4F06C06081718180E02B
:101CD00090E00E5F1F4FA3010E94500F882E8618C0
:101CE000FB2DFF773F2E36FE0DC0232D2E7FA22E1B
:101CF000891458F434FE0BC032FC09C0832D8E7E4B
:101D0000A82E05C0B82CA32C03C0B82C01C0B92C38
:101D1000A4FE0FC0FE01E80DF11D8081803321F487
:101D20009A2D997EA92E09C0A2FE06C0B394B39441
:101D300004C08A2D867809F0B394A3FC11C0A0FEDC
:101D400006C0B21488F4280C922C9B180EC0B21452
:101D500060F4B60180E290E00E94140FB394F7CFD4
:101D6000B21418F42B1802C0982C212CA4FE10C019
:101D7000B60180E390E00E94140FA2FE17C0A1FC00
:101D800003C088E790E002C088E590E0B6010CC08F
:101D90008A2D867859F0A1FE02C08BE201C080E254
:101DA000A7FC8DE2B60190E00E94140F891438F46C
:101DB000B60180E390E00E94140F9A94F7CF8A94C2
:101DC000F301E80DF11D8081B60190E00E94140F2F
:101DD0008110F5CF222009F442CEB60180E290E0D6
:101DE0000E94140F2A94F6CFF6018681978102C0D3
:101DF0008FEF9FEF2B96E2E10C94CA0FFC01059048
:101E0000615070400110D8F7809590958E0F9F1FFC
:101E10000895FC016150704001900110D8F7809541
:101E200090958E0F9F1F08950F931F93CF93DF936D
:101E3000FB01238121FD03C08FEF9FEF2CC022FF08
:101E400016C046815781248135814217530744F4D7
:101E5000A081B1819D012F5F3F4F318320838C93FF
:101E6000268137812F5F3F4F3783268314C08B0134
:101E7000EC01FB010084F185E02D0995892BE1F649
:101E8000D80116968D919C911797019617969C9361
:101E90008E931697CE01DF91CF911F910F910895E8
:101EA000FA01AA27283051F1203181F1E8946F938B
:101EB0006E7F6E5F7F4F8F4F9F4FAF4FB1E03ED031
:101EC000B4E03CD0670F781F891F9A1FA11D680FCF
:101ED000791F8A1F911DA11D6A0F711D811D911D02
:101EE000A11D20D009F468943F912AE0269F112477
:101EF0003019305D3193DEF6CF010895462F4770DB
:101F0000405D4193B3E00FD0C9F7F6CF462F4F7035
:101F1000405D4A3318F0495D31FD4052419302D093
:101F2000A9F7EACFB4E0A695979587957795679539
:101F3000BA95C9F700976105710508959B01AC0139
:101F40000A2E06945795479537952795BA95C9F760
:101F5000620F731F841F951FA01D08952F923F923B
:101F60004F925F926F927F928F929F92AF92BF92A9
:101F7000CF92DF92EF92FF920F931F93CF93DF9355
:101F8000CDB7DEB7CA1BDB0B0FB6F894DEBF0FBEB2
:101F9000CDBF09942A88398848885F846E847D84FF
:101FA0008C849B84AA84B984C884DF80EE80FD8001
:101FB0000C811B81AA81B981CE0FD11D0FB6F89477
:0E1FC000DEBF0FBECDBFED010895F894FFCF38
:101FCE0053696E6500000000005371756172650003
:101FDE000000547269616E676C6500140032006413
:101FEE0000C8002C01F401BC02E803B004DC05417A
:101FFE006D706C6974756465004672657175656E99
:10200E0063790057617665666F726D0025640048CE
:10201E007A002020202000557020202020446F7749
:10202E006E2020202053656C656374003E00557051
:10203E0020202020446F776E202020204261636B89
:04204E00003C000052
:00000001FF
